{
  "abi": [
    {
      "inputs": [
        {
          "internalType": "address",
          "name": "_mailboxAddress",
          "type": "address"
        },
        {
          "internalType": "address",
          "name": "_paymaster",
          "type": "address"
        },
        {
          "internalType": "address[]",
          "name": "_council",
          "type": "address[]"
        },
        {
          "internalType": "address",
          "name": "_nftLock",
          "type": "address"
        },
        {
          "internalType": "address",
          "name": "_stakingContract",
          "type": "address"
        }
      ],
      "stateMutability": "nonpayable",
      "type": "constructor"
    },
    {
      "anonymous": false,
      "inputs": [
        {
          "indexed": true,
          "internalType": "uint256",
          "name": "id",
          "type": "uint256"
        }
      ],
      "name": "ProposalCreated",
      "type": "event"
    },
    {
      "anonymous": false,
      "inputs": [
        {
          "indexed": true,
          "internalType": "uint256",
          "name": "proposalId",
          "type": "uint256"
        }
      ],
      "name": "ProposalExecuted",
      "type": "event"
    },
    {
      "anonymous": false,
      "inputs": [
        {
          "indexed": true,
          "internalType": "uint256",
          "name": "proposalId",
          "type": "uint256"
        },
        {
          "indexed": true,
          "internalType": "address",
          "name": "voter",
          "type": "address"
        },
        {
          "indexed": false,
          "internalType": "bool",
          "name": "support",
          "type": "bool"
        }
      ],
      "name": "VoteCasted",
      "type": "event"
    },
    {
      "inputs": [
        {
          "components": [
            {
              "internalType": "string",
              "name": "description",
              "type": "string"
            },
            {
              "internalType": "uint16",
              "name": "targetChain",
              "type": "uint16"
            },
            {
              "internalType": "address",
              "name": "targetAddress",
              "type": "address"
            },
            {
              "internalType": "address",
              "name": "tokenAddressSource",
              "type": "address"
            },
            {
              "internalType": "uint256",
              "name": "sourceValue",
              "type": "uint256"
            },
            {
              "internalType": "uint256",
              "name": "endDate",
              "type": "uint256"
            },
            {
              "internalType": "uint16",
              "name": "voteNeeded",
              "type": "uint16"
            },
            {
              "internalType": "address",
              "name": "nftAddress",
              "type": "address"
            },
            {
              "internalType": "string",
              "name": "groupId",
              "type": "string"
            },
            {
              "internalType": "bytes",
              "name": "messageBody",
              "type": "bytes"
            }
          ],
          "internalType": "struct Governance.ProposalInput",
          "name": "input",
          "type": "tuple"
        }
      ],
      "name": "createProposal",
      "outputs": [],
      "stateMutability": "nonpayable",
      "type": "function"
    },
    {
      "inputs": [
        {
          "internalType": "uint256",
          "name": "proposalId",
          "type": "uint256"
        }
      ],
      "name": "executeProposal",
      "outputs": [],
      "stateMutability": "payable",
      "type": "function"
    },
    {
      "inputs": [
        {
          "internalType": "address",
          "name": "",
          "type": "address"
        }
      ],
      "name": "isCouncil",
      "outputs": [
        {
          "internalType": "bool",
          "name": "",
          "type": "bool"
        }
      ],
      "stateMutability": "view",
      "type": "function"
    },
    {
      "inputs": [
        {
          "internalType": "uint256",
          "name": "proposalId",
          "type": "uint256"
        }
      ],
      "name": "releaseLockedNFT",
      "outputs": [],
      "stateMutability": "nonpayable",
      "type": "function"
    },
    {
      "inputs": [],
      "name": "resources",
      "outputs": [
        {
          "internalType": "contract IMailbox",
          "name": "mailbox",
          "type": "address"
        },
        {
          "internalType": "contract IInterchainGasPaymaster",
          "name": "paymaster",
          "type": "address"
        },
        {
          "internalType": "contract NFTLock",
          "name": "nftLock",
          "type": "address"
        },
        {
          "internalType": "contract ERC20Staking",
          "name": "stakingContract",
          "type": "address"
        }
      ],
      "stateMutability": "view",
      "type": "function"
    },
    {
      "inputs": [],
      "name": "returnAllCouncil",
      "outputs": [
        {
          "internalType": "address[]",
          "name": "",
          "type": "address[]"
        }
      ],
      "stateMutability": "view",
      "type": "function"
    },
    {
      "inputs": [],
      "name": "returnAllProposal",
      "outputs": [
        {
          "components": [
            {
              "internalType": "uint256",
              "name": "id",
              "type": "uint256"
            },
            {
              "internalType": "string",
              "name": "description",
              "type": "string"
            },
            {
              "internalType": "address",
              "name": "proposedAddress",
              "type": "address"
            },
            {
              "internalType": "uint16",
              "name": "targetChain",
              "type": "uint16"
            },
            {
              "internalType": "address",
              "name": "targetAddress",
              "type": "address"
            },
            {
              "internalType": "address",
              "name": "tokenAddressSource",
              "type": "address"
            },
            {
              "internalType": "uint256",
              "name": "sourceValue",
              "type": "uint256"
            },
            {
              "internalType": "uint256",
              "name": "votesNeeded",
              "type": "uint256"
            },
            {
              "internalType": "uint256",
              "name": "votes",
              "type": "uint256"
            },
            {
              "internalType": "bytes",
              "name": "messageBody",
              "type": "bytes"
            },
            {
              "internalType": "address",
              "name": "nftAddress",
              "type": "address"
            },
            {
              "internalType": "string",
              "name": "groupId",
              "type": "string"
            },
            {
              "internalType": "bool",
              "name": "executed",
              "type": "bool"
            },
            {
              "internalType": "bool",
              "name": "ended",
              "type": "bool"
            },
            {
              "internalType": "uint256",
              "name": "endDate",
              "type": "uint256"
            }
          ],
          "internalType": "struct Governance.Proposal[]",
          "name": "",
          "type": "tuple[]"
        }
      ],
      "stateMutability": "view",
      "type": "function"
    },
    {
      "inputs": [
        {
          "internalType": "uint256",
          "name": "proposalId",
          "type": "uint256"
        },
        {
          "internalType": "uint256",
          "name": "tokenId",
          "type": "uint256"
        }
      ],
      "name": "stakeAndVote",
      "outputs": [],
      "stateMutability": "nonpayable",
      "type": "function"
    },
    {
      "inputs": [
        {
          "internalType": "address",
          "name": "",
          "type": "address"
        },
        {
          "internalType": "uint256",
          "name": "",
          "type": "uint256"
        }
      ],
      "name": "voted",
      "outputs": [
        {
          "internalType": "bool",
          "name": "",
          "type": "bool"
        }
      ],
      "stateMutability": "view",
      "type": "function"
    }
  ],
  "bytecode": {
    "object": "0x60806040523480156200001157600080fd5b5060405162001979380380620019798339810160408190526200003491620001e1565b600280546001600160a01b038088166001600160a01b03199283161790925560038054928716929091169190911790556200006f83620000a5565b600480546001600160a01b039384166001600160a01b03199182161790915560058054929093169116179055506200033f915050565b8051620000ba9060069060208401906200012d565b5060005b815181101562000129576001806000848481518110620000e257620000e262000301565b6020908102919091018101516001600160a01b03168252810191909152604001600020805460ff191691151591909117905580620001208162000317565b915050620000be565b5050565b82805482825590600052602060002090810192821562000185579160200282015b828111156200018557825182546001600160a01b0319166001600160a01b039091161782556020909201916001909101906200014e565b506200019392915062000197565b5090565b5b8082111562000193576000815560010162000198565b80516001600160a01b0381168114620001c657600080fd5b919050565b634e487b7160e01b600052604160045260246000fd5b600080600080600060a08688031215620001fa57600080fd5b6200020586620001ae565b9450602062000216818801620001ae565b60408801519095506001600160401b03808211156200023457600080fd5b818901915089601f8301126200024957600080fd5b8151818111156200025e576200025e620001cb565b8060051b604051601f19603f83011681018181108582111715620002865762000286620001cb565b60405291825284820192508381018501918c831115620002a557600080fd5b938501935b82851015620002ce57620002be85620001ae565b84529385019392850192620002aa565b809850505050505050620002e560608701620001ae565b9150620002f560808701620001ae565b90509295509295909350565b634e487b7160e01b600052603260045260246000fd5b6000600182016200033857634e487b7160e01b600052601160045260246000fd5b5060010190565b61162a806200034f6000396000f3fe6080604052600436106100865760003560e01c80639aa360ec116100595780639aa360ec1461010b578063b744cc2b1461014b578063c591aa981461016b578063da78b294146101a3578063f03906f5146101c557600080fd5b80630d61b5191461008b57806328b84813146100a05780635e2c8391146100cb57806365cb906d146100eb575b600080fd5b61009e610099366004610ec0565b61022b565b005b3480156100ac57600080fd5b506100b56102f5565b6040516100c29190610f1f565b60405180910390f35b3480156100d757600080fd5b5061009e6100e6366004611085565b6105be565b3480156100f757600080fd5b5061009e6101063660046111a2565b610600565b34801561011757600080fd5b5061013b6101263660046112c7565b60016020526000908152604090205460ff1681565b60405190151581526020016100c2565b34801561015757600080fd5b5061009e610166366004610ec0565b610766565b34801561017757600080fd5b5061013b6101863660046112e9565b600060208181529281526040808220909352908152205460ff1681565b3480156101af57600080fd5b506101b86107c5565b6040516100c29190611313565b3480156101d157600080fd5b506002546003546004546005546101f8936001600160a01b03908116938116928116911684565b604080516001600160a01b03958616815293851660208501529184169183019190915290911660608201526080016100c2565b60006102368261082a565b600381015490915060009060601b6bffffffffffffffffffffffff1916600280549084015460405163fa31de0160e01b81529293506000926001600160a01b039092169163fa31de01916102a091600160a01b90910461ffff16908690600889019060040161139a565b6020604051808303816000875af11580156102bf573d6000803e3d6000fd5b505050506040513d601f19601f820116820180604052508101906102e39190611438565b90506102ef8184610a4e565b50505050565b60606002600501805480602002602001604051908101604052809291908181526020016000905b828210156105b557838290600052602060002090600d0201604051806101e00160405290816000820154815260200160018201805461035a90611360565b80601f016020809104026020016040519081016040528092919081815260200182805461038690611360565b80156103d35780601f106103a8576101008083540402835291602001916103d3565b820191906000526020600020905b8154815290600101906020018083116103b657829003601f168201915b505050918352505060028201546001600160a01b038082166020840152600160a01b90910461ffff1660408301526003830154811660608301526004830154166080820152600582015460a0820152600682015460c0820152600782015460e08201526008820180546101009092019161044c90611360565b80601f016020809104026020016040519081016040528092919081815260200182805461047890611360565b80156104c55780601f1061049a576101008083540402835291602001916104c5565b820191906000526020600020905b8154815290600101906020018083116104a857829003601f168201915b505050918352505060098201546001600160a01b03166020820152600a820180546040909201916104f590611360565b80601f016020809104026020016040519081016040528092919081815260200182805461052190611360565b801561056e5780601f106105435761010080835404028352916020019161056e565b820191906000526020600020905b81548152906001019060200180831161055157829003601f168201915b5050509183525050600b82015460ff80821615156020808501919091526101009092041615156040830152600c90920154606090910152908252600192909201910161031c565b50505050905090565b6000600260050183815481106105d6576105d6611451565b90600052602060002090600d020190506105f1818484610ad6565b6105fb8184610b2e565b505050565b3360009081526001602052604090205460ff166106705760405162461bcd60e51b8152602060048201526024808201527f4f6e6c7920636f756e63696c732063616e2063616c6c20746869732066756e636044820152633a34b7b760e11b60648201526084015b60405180910390fd5b8060018160c0015161ffff1610156106c05760405162461bcd60e51b8152602060048201526013602482015272566f7465206e656564656420746f6f206c6f7760681b6044820152606401610667565b60648160c0015161ffff1611156107105760405162461bcd60e51b81526020600482015260146024820152730acdee8ca40dccacac8cac840e8dede40d0d2ced60631b6044820152606401610667565b428160a0015110156107595760405162461bcd60e51b8152602060048201526012602482015271111d5c985d1a5bdb881d1bdbc81cda1bdc9d60721b6044820152606401610667565b61076282610c47565b5050565b60048054604051635e5ba8d760e01b81529182018390526001600160a01b031690635e5ba8d790602401600060405180830381600087803b1580156107aa57600080fd5b505af11580156107be573d6000803e3d6000fd5b5050505050565b6060600260040180548060200260200160405190810160405280929190818152602001828054801561082057602002820191906000526020600020905b81546001600160a01b03168152600190910190602001808311610802575b5050505050905090565b6000806002600501838154811061084357610843611451565b60009182526020909120600d90910201600b81015490915060ff161561087b5760405162461bcd60e51b815260040161066790611467565b600b810154610100900460ff16156108d55760405162461bcd60e51b815260206004820152601b60248201527f50726f706f73616c2068617320616c726561647920656e6465642e00000000006044820152606401610667565b8060060154816007015410156109215760405162461bcd60e51b81526020600482015260116024820152702737ba1032b737bab3b4103b37ba32b99760791b6044820152606401610667565b4281600c015411156109755760405162461bcd60e51b815260206004820152601760248201527f50726f706f73616c20686173206e6f7420656e6465642e0000000000000000006044820152606401610667565b60028101546001600160a01b031633146109dc5760405162461bcd60e51b815260206004820152602260248201527f4f6e6c7920436f756e63696c2063616e20657865637574652070726f706f7361604482015261361760f11b6064820152608401610667565b60098101546001600160a01b0316610a365760405162461bcd60e51b815260206004820181905260248201527f4e6f204e4654206c6f636b656420666f7220746869732070726f706f73616c2e6044820152606401610667565b600b8101805461ffff19166101011790555b92915050565b6003546002820154604051630237e58360e31b815260048101859052600160a01b90910461ffff16602482015261271060448201523360648201526001600160a01b03909116906311bf2c189034906084016000604051808303818588803b158015610ab957600080fd5b505af1158015610acd573d6000803e3d6000fd5b50505050505050565b6004805460098501546040516328aa15a160e11b81529283018590526001600160a01b0390811660248401526044830184905216906351542b4290606401600060405180830381600087803b158015610ab957600080fd5b600b820154610100900460ff1615610b7a5760405162461bcd60e51b815260206004820152600f60248201526e2b37ba32903430b99032b73232b21760891b6044820152606401610667565b600b82015460ff1615610b9f5760405162461bcd60e51b815260040161066790611467565b3360009081526020818152604080832084845290915290205460ff1615610c085760405162461bcd60e51b815260206004820152601760248201527f596f75206861766520616c726561647920766f7465642e0000000000000000006044820152606401610667565b6001826007016000828254610c1d91906114c0565b90915550503360009081526020818152604080832093835292905220805460ff1916600117905550565b604080516101e0810182526007805480835284516020808501918252338587015286015161ffff908116606080870191909152958701516001600160a01b0390811660808088019190915296880151811660a0808801919091529688015160c08088019190915288015190911660e0808701919091526000610100808801829052610120808b0151908901529189015190921661014087015287015161016086015261018085018190526101a08501819052948601516101c0850152600182018355919093528151600d9093027fa66cc928b5edb82af9bd49922954155ab7b0942694bea4ce44661d9a8736c688810193845590519192917fa66cc928b5edb82af9bd49922954155ab7b0942694bea4ce44661d9a8736c68990910190610d6e9082611521565b506040820151600282018054606085015161ffff16600160a01b026001600160b01b03199091166001600160a01b039384161717905560808301516003830180549183166001600160a01b031992831617905560a084015160048401805491909316911617905560c0820151600582015560e0820151600682015561010082015160078201556101208201516008820190610e099082611521565b506101408201516009820180546001600160a01b0319166001600160a01b03909216919091179055610160820151600a820190610e469082611521565b50610180820151600b820180546101a085015115156101000261ff00199315159390931661ffff19909116179190911790556101c090910151600c90910155600754610e94906001906115e1565b6040517fc2c021f5d73c63c481d336fbbafec58f694fc45095f00b02d2deb8cca59afe0790600090a250565b600060208284031215610ed257600080fd5b5035919050565b6000815180845260005b81811015610eff57602081850181015186830182015201610ee3565b506000602082860101526020601f19601f83011685010191505092915050565b60006020808301818452808551808352604092508286019150828160051b87010184880160005b8381101561107757603f1989840301855281516101e08151855288820151818a870152610f7582870182610ed9565b91505087820151610f90898701826001600160a01b03169052565b5060608281015161ffff16908601526080808301516001600160a01b039081169187019190915260a0808401519091169086015260c0808301519086015260e0808301519086015261010080830151908601526101208083015186830382880152610ffb8382610ed9565b925050506101408083015161101a828801826001600160a01b03169052565b505061016080830151868303828801526110348382610ed9565b925050506101808083015161104c8288018215159052565b50506101a0828101511515908601526101c09182015191909401529386019390860190600101610f46565b509098975050505050505050565b6000806040838503121561109857600080fd5b50508035926020909101359150565b634e487b7160e01b600052604160045260246000fd5b604051610140810167ffffffffffffffff811182821017156110e1576110e16110a7565b60405290565b600082601f8301126110f857600080fd5b813567ffffffffffffffff80821115611113576111136110a7565b604051601f8301601f19908116603f0116810190828211818310171561113b5761113b6110a7565b8160405283815286602085880101111561115457600080fd5b836020870160208301376000602085830101528094505050505092915050565b803561ffff8116811461118657600080fd5b919050565b80356001600160a01b038116811461118657600080fd5b6000602082840312156111b457600080fd5b813567ffffffffffffffff808211156111cc57600080fd5b9083019061014082860312156111e157600080fd5b6111e96110bd565b8235828111156111f857600080fd5b611204878286016110e7565b82525061121360208401611174565b60208201526112246040840161118b565b60408201526112356060840161118b565b60608201526080830135608082015260a083013560a082015261125a60c08401611174565b60c082015261126b60e0840161118b565b60e0820152610100808401358381111561128457600080fd5b611290888287016110e7565b82840152505061012080840135838111156112aa57600080fd5b6112b6888287016110e7565b918301919091525095945050505050565b6000602082840312156112d957600080fd5b6112e28261118b565b9392505050565b600080604083850312156112fc57600080fd5b6113058361118b565b946020939093013593505050565b6020808252825182820181905260009190848201906040850190845b818110156113545783516001600160a01b03168352928401929184019160010161132f565b50909695505050505050565b600181811c9082168061137457607f821691505b60208210810361139457634e487b7160e01b600052602260045260246000fd5b50919050565b61ffff8416815260006020848184015260606040840152600084546113be81611360565b80606087015260806001808416600081146113e057600181146113fa57611428565b60ff1985168984015283151560051b890183019550611428565b896000528660002060005b858110156114205781548b8201860152908301908801611405565b8a0184019650505b50939a9950505050505050505050565b60006020828403121561144a57600080fd5b5051919050565b634e487b7160e01b600052603260045260246000fd5b60208082526023908201527f50726f706f73616c2068617320616c7265616479206265656e2065786563757460408201526232b21760e91b606082015260800190565b634e487b7160e01b600052601160045260246000fd5b80820180821115610a4857610a486114aa565b601f8211156105fb57600081815260208120601f850160051c810160208610156114fa5750805b601f850160051c820191505b8181101561151957828155600101611506565b505050505050565b815167ffffffffffffffff81111561153b5761153b6110a7565b61154f816115498454611360565b846114d3565b602080601f831160018114611584576000841561156c5750858301515b600019600386901b1c1916600185901b178555611519565b600085815260208120601f198616915b828110156115b357888601518255948401946001909101908401611594565b50858210156115d15787850151600019600388901b60f8161c191681555b5050505050600190811b01905550565b81810381811115610a4857610a486114aa56fea26469706673582212203882cd110928a660c561b6a348575685214fc44a99f4fd5874ec0670a4dfd94364736f6c63430008140033",
    "linkReferences": {}
  },
  "methodIdentifiers": {
    "createProposal((string,uint16,address,address,uint256,uint256,uint16,address,string,bytes))": "65cb906d",
    "executeProposal(uint256)": "0d61b519",
    "isCouncil(address)": "9aa360ec",
    "releaseLockedNFT(uint256)": "b744cc2b",
    "resources()": "f03906f5",
    "returnAllCouncil()": "da78b294",
    "returnAllProposal()": "28b84813",
    "stakeAndVote(uint256,uint256)": "5e2c8391",
    "voted(address,uint256)": "c591aa98"
  },
  "id": 20
}