{
  "abi": [
    {
      "inputs": [
        {
          "internalType": "address",
          "name": "_mailboxAddress",
          "type": "address"
        },
        {
          "internalType": "address",
          "name": "_paymaster",
          "type": "address"
        },
        {
          "internalType": "address[]",
          "name": "_council",
          "type": "address[]"
        },
        {
          "internalType": "address",
          "name": "_nftLock",
          "type": "address"
        },
        {
          "internalType": "address",
          "name": "_stakingContract",
          "type": "address"
        }
      ],
      "stateMutability": "nonpayable",
      "type": "constructor"
    },
    {
      "anonymous": false,
      "inputs": [
        {
          "indexed": true,
          "internalType": "uint256",
          "name": "id",
          "type": "uint256"
        }
      ],
      "name": "ProposalCreated",
      "type": "event"
    },
    {
      "anonymous": false,
      "inputs": [
        {
          "indexed": true,
          "internalType": "uint256",
          "name": "proposalId",
          "type": "uint256"
        }
      ],
      "name": "ProposalExecuted",
      "type": "event"
    },
    {
      "anonymous": false,
      "inputs": [
        {
          "indexed": true,
          "internalType": "uint256",
          "name": "proposalId",
          "type": "uint256"
        },
        {
          "indexed": true,
          "internalType": "address",
          "name": "voter",
          "type": "address"
        },
        {
          "indexed": false,
          "internalType": "bool",
          "name": "support",
          "type": "bool"
        }
      ],
      "name": "VoteCasted",
      "type": "event"
    },
    {
      "inputs": [
        {
          "components": [
            {
              "internalType": "string",
              "name": "description",
              "type": "string"
            },
            {
              "internalType": "uint16",
              "name": "targetChain",
              "type": "uint16"
            },
            {
              "internalType": "address",
              "name": "targetAddress",
              "type": "address"
            },
            {
              "internalType": "address",
              "name": "tokenAddressSource",
              "type": "address"
            },
            {
              "internalType": "uint256",
              "name": "sourceValue",
              "type": "uint256"
            },
            {
              "internalType": "uint256",
              "name": "duration",
              "type": "uint256"
            },
            {
              "internalType": "uint16",
              "name": "voteNeeded",
              "type": "uint16"
            },
            {
              "components": [
                {
                  "internalType": "address",
                  "name": "nftAddress",
                  "type": "address"
                },
                {
                  "internalType": "uint256",
                  "name": "nftTokenId",
                  "type": "uint256"
                }
              ],
              "internalType": "struct Governance.LockedNFT",
              "name": "lockedNFT",
              "type": "tuple"
            },
            {
              "internalType": "bytes",
              "name": "messageBody",
              "type": "bytes"
            }
          ],
          "internalType": "struct Governance.ProposalInput",
          "name": "input",
          "type": "tuple"
        }
      ],
      "name": "createProposal",
      "outputs": [],
      "stateMutability": "nonpayable",
      "type": "function"
    },
    {
      "inputs": [
        {
          "internalType": "uint256",
          "name": "proposalId",
          "type": "uint256"
        }
      ],
      "name": "executeProposal",
      "outputs": [],
      "stateMutability": "payable",
      "type": "function"
    },
    {
      "inputs": [
        {
          "internalType": "address",
          "name": "",
          "type": "address"
        }
      ],
      "name": "isCouncil",
      "outputs": [
        {
          "internalType": "bool",
          "name": "",
          "type": "bool"
        }
      ],
      "stateMutability": "view",
      "type": "function"
    },
    {
      "inputs": [
        {
          "internalType": "uint256",
          "name": "proposalId",
          "type": "uint256"
        }
      ],
      "name": "releaseLockedNFT",
      "outputs": [],
      "stateMutability": "nonpayable",
      "type": "function"
    },
    {
      "inputs": [],
      "name": "resources",
      "outputs": [
        {
          "internalType": "contract IMailbox",
          "name": "mailbox",
          "type": "address"
        },
        {
          "internalType": "contract IInterchainGasPaymaster",
          "name": "paymaster",
          "type": "address"
        },
        {
          "internalType": "contract NFTLock",
          "name": "nftLock",
          "type": "address"
        },
        {
          "internalType": "contract ERC20Staking",
          "name": "stakingContract",
          "type": "address"
        }
      ],
      "stateMutability": "view",
      "type": "function"
    },
    {
      "inputs": [],
      "name": "returnAllCouncil",
      "outputs": [
        {
          "internalType": "address[]",
          "name": "",
          "type": "address[]"
        }
      ],
      "stateMutability": "view",
      "type": "function"
    },
    {
      "inputs": [],
      "name": "returnAllProposal",
      "outputs": [
        {
          "components": [
            {
              "internalType": "uint256",
              "name": "id",
              "type": "uint256"
            },
            {
              "internalType": "string",
              "name": "description",
              "type": "string"
            },
            {
              "internalType": "address",
              "name": "proposedAddress",
              "type": "address"
            },
            {
              "internalType": "uint16",
              "name": "targetChain",
              "type": "uint16"
            },
            {
              "internalType": "address",
              "name": "targetAddress",
              "type": "address"
            },
            {
              "internalType": "address",
              "name": "tokenAddressSource",
              "type": "address"
            },
            {
              "internalType": "uint256",
              "name": "sourceValue",
              "type": "uint256"
            },
            {
              "internalType": "uint256",
              "name": "votesNeeded",
              "type": "uint256"
            },
            {
              "internalType": "uint256",
              "name": "votes",
              "type": "uint256"
            },
            {
              "internalType": "bytes",
              "name": "messageBody",
              "type": "bytes"
            },
            {
              "components": [
                {
                  "internalType": "address",
                  "name": "nftAddress",
                  "type": "address"
                },
                {
                  "internalType": "uint256",
                  "name": "nftTokenId",
                  "type": "uint256"
                }
              ],
              "internalType": "struct Governance.LockedNFT",
              "name": "lockedNFT",
              "type": "tuple"
            },
            {
              "internalType": "bool",
              "name": "executed",
              "type": "bool"
            },
            {
              "internalType": "bool",
              "name": "ended",
              "type": "bool"
            },
            {
              "internalType": "uint256",
              "name": "duration",
              "type": "uint256"
            }
          ],
          "internalType": "struct Governance.Proposal[]",
          "name": "",
          "type": "tuple[]"
        }
      ],
      "stateMutability": "view",
      "type": "function"
    },
    {
      "inputs": [
        {
          "internalType": "uint256",
          "name": "proposalId",
          "type": "uint256"
        },
        {
          "internalType": "uint256",
          "name": "stakeAmount",
          "type": "uint256"
        }
      ],
      "name": "stakeAndVote",
      "outputs": [],
      "stateMutability": "nonpayable",
      "type": "function"
    },
    {
      "inputs": [
        {
          "internalType": "address",
          "name": "",
          "type": "address"
        },
        {
          "internalType": "uint256",
          "name": "",
          "type": "uint256"
        }
      ],
      "name": "voted",
      "outputs": [
        {
          "internalType": "bool",
          "name": "",
          "type": "bool"
        }
      ],
      "stateMutability": "view",
      "type": "function"
    }
  ],
  "bytecode": {
    "object": "0x60806040523480156200001157600080fd5b506040516200186f3803806200186f8339810160408190526200003491620001e1565b600280546001600160a01b038088166001600160a01b03199283161790925560038054928716929091169190911790556200006f83620000a5565b600480546001600160a01b039384166001600160a01b03199182161790915560058054929093169116179055506200033f915050565b8051620000ba9060069060208401906200012d565b5060005b815181101562000129576001806000848481518110620000e257620000e262000301565b6020908102919091018101516001600160a01b03168252810191909152604001600020805460ff191691151591909117905580620001208162000317565b915050620000be565b5050565b82805482825590600052602060002090810192821562000185579160200282015b828111156200018557825182546001600160a01b0319166001600160a01b039091161782556020909201916001909101906200014e565b506200019392915062000197565b5090565b5b8082111562000193576000815560010162000198565b80516001600160a01b0381168114620001c657600080fd5b919050565b634e487b7160e01b600052604160045260246000fd5b600080600080600060a08688031215620001fa57600080fd5b6200020586620001ae565b9450602062000216818801620001ae565b60408801519095506001600160401b03808211156200023457600080fd5b818901915089601f8301126200024957600080fd5b8151818111156200025e576200025e620001cb565b8060051b604051601f19603f83011681018181108582111715620002865762000286620001cb565b60405291825284820192508381018501918c831115620002a557600080fd5b938501935b82851015620002ce57620002be85620001ae565b84529385019392850192620002aa565b809850505050505050620002e560608701620001ae565b9150620002f560808701620001ae565b90509295509295909350565b634e487b7160e01b600052603260045260246000fd5b6000600182016200033857634e487b7160e01b600052601160045260246000fd5b5060010190565b611520806200034f6000396000f3fe6080604052600436106100865760003560e01c80639aa360ec116100595780639aa360ec1461010b578063b744cc2b1461014b578063c591aa981461016b578063da78b294146101a3578063f03906f5146101c557600080fd5b80630d61b5191461008b57806328b84813146100a0578063596d1a8e146100cb5780635e2c8391146100eb575b600080fd5b61009e610099366004610d92565b61022b565b005b3480156100ac57600080fd5b506100b56102f5565b6040516100c29190610df1565b60405180910390f35b3480156100d757600080fd5b5061009e6100e63660046110a5565b610542565b3480156100f757600080fd5b5061009e6101063660046111a3565b6106f5565b34801561011757600080fd5b5061013b6101263660046111c5565b60016020526000908152604090205460ff1681565b60405190151581526020016100c2565b34801561015757600080fd5b5061009e610166366004610d92565b610794565b34801561017757600080fd5b5061013b6101863660046111e7565b600060208181529281526040808220909352908152205460ff1681565b3480156101af57600080fd5b506101b86107f3565b6040516100c29190611211565b3480156101d157600080fd5b506002546003546004546005546101f8936001600160a01b03908116938116928116911684565b604080516001600160a01b03958616815293851660208501529184169183019190915290911660608201526080016100c2565b600061023682610858565b600381015490915060009060601b6bffffffffffffffffffffffff1916600280549084015460405163fa31de0160e01b81529293506000926001600160a01b039092169163fa31de01916102a091600160a01b90910461ffff169086906008890190600401611298565b6020604051808303816000875af11580156102bf573d6000803e3d6000fd5b505050506040513d601f19601f820116820180604052508101906102e39190611336565b90506102ef818461091b565b50505050565b60606002600501805480602002602001604051908101604052809291908181526020016000905b8282101561053957838290600052602060002090600d0201604051806101c00160405290816000820154815260200160018201805461035a9061125e565b80601f01602080910402602001604051908101604052809291908181526020018280546103869061125e565b80156103d35780601f106103a8576101008083540402835291602001916103d3565b820191906000526020600020905b8154815290600101906020018083116103b657829003601f168201915b505050918352505060028201546001600160a01b038082166020840152600160a01b90910461ffff1660408301526003830154811660608301526004830154166080820152600582015460a0820152600682015460c0820152600782015460e08201526008820180546101009092019161044c9061125e565b80601f01602080910402602001604051908101604052809291908181526020018280546104789061125e565b80156104c55780601f1061049a576101008083540402835291602001916104c5565b820191906000526020600020905b8154815290600101906020018083116104a857829003601f168201915b505050918352505060408051808201825260098401546001600160a01b03168152600a84015460208281019190915280840191909152600b84015460ff808216151593850193909352610100900490911615156060830152600c90920154608090910152908252600192909201910161031c565b50505050905090565b3360009081526001602052604090205460ff166105b25760405162461bcd60e51b8152602060048201526024808201527f4f6e6c7920636f756e63696c732063616e2063616c6c20746869732066756e636044820152633a34b7b760e11b60648201526084015b60405180910390fd5b80600a8160c0015161ffff1610156106025760405162461bcd60e51b8152602060048201526013602482015272566f7465206e656564656420746f6f206c6f7760681b60448201526064016105a9565b60648160c0015161ffff1611156106525760405162461bcd60e51b81526020600482015260146024820152730acdee8ca40dccacac8cac840e8dede40d0d2ced60631b60448201526064016105a9565b6102588160a00151101561069d5760405162461bcd60e51b8152602060048201526012602482015271111d5c985d1a5bdb881d1bdbc81cda1bdc9d60721b60448201526064016105a9565b62278d008160a0015111156106e85760405162461bcd60e51b81526020600482015260116024820152704475726174696f6e20746f6f206c6f6e6760781b60448201526064016105a9565b6106f1826109a3565b5050565b60055460405163534a7e1d60e11b8152600481018390526001600160a01b039091169063a694fc3a90602401600060405180830381600087803b15801561073b57600080fd5b505af115801561074f573d6000803e3d6000fd5b5050505060006002600501838154811061076b5761076b61134f565b90600052602060002090600d020190506107858184610c02565b61078f8184610c79565b505050565b60048054604051635e5ba8d760e01b81529182018390526001600160a01b031690635e5ba8d790602401600060405180830381600087803b1580156107d857600080fd5b505af11580156107ec573d6000803e3d6000fd5b5050505050565b6060600260040180548060200260200160405190810160405280929190818152602001828054801561084e57602002820191906000526020600020905b81546001600160a01b03168152600190910190602001808311610830575b5050505050905090565b600080600260050183815481106108715761087161134f565b60009182526020909120600d90910201600b81015490915060ff16156108a95760405162461bcd60e51b81526004016105a990611365565b600b810154610100900460ff16156109035760405162461bcd60e51b815260206004820152601b60248201527f50726f706f73616c2068617320616c726561647920656e6465642e000000000060448201526064016105a9565b600b8101805461ffff19166101011790555b92915050565b6003546002820154604051630237e58360e31b815260048101859052600160a01b90910461ffff16602482015261271060448201523360648201526001600160a01b03909116906311bf2c189034906084016000604051808303818588803b15801561098657600080fd5b505af115801561099a573d6000803e3d6000fd5b50505050505050565b604080516101c0810182526007805480835284516020808501918252338587015286015161ffff908116606080870191909152958701516001600160a01b03908116608080880191909152968801511660a0808701919091529587015160c0808701919091528701511660e08086019190915260006101008087018290528801516101208701529087015161014086015261016085018190526101808501819052948601516101a0850152600182018355919093528151600d9093027fa66cc928b5edb82af9bd49922954155ab7b0942694bea4ce44661d9a8736c688810193845590519192917fa66cc928b5edb82af9bd49922954155ab7b0942694bea4ce44661d9a8736c68990910190610ab990826113ee565b506040820151600282018054606085015161ffff16600160a01b026001600160b01b03199091166001600160a01b039384161717905560808301516003830180549183166001600160a01b031992831617905560a084015160048401805491909316911617905560c0820151600582015560e0820151600682015561010082015160078201556101208201516008820190610b5490826113ee565b5061014082015180516009830180546001600160a01b039092166001600160a01b031990921691909117905560200151600a820155610160820151600b8201805461018085015115156101000261ff00199315159390931661ffff19909116179190911790556101a090910151600c90910155600754610bd6906001906114c4565b6040517fc2c021f5d73c63c481d336fbbafec58f694fc45095f00b02d2deb8cca59afe0790600090a250565b600480546009840154600a8501546040516328aa15a160e11b81529384018590526001600160a01b039182166024850152604484015216906351542b4290606401600060405180830381600087803b158015610c5d57600080fd5b505af1158015610c71573d6000803e3d6000fd5b505050505050565b600b820154610100900460ff1615610cc55760405162461bcd60e51b815260206004820152600f60248201526e2b37ba32903430b99032b73232b21760891b60448201526064016105a9565b600b82015460ff1615610cea5760405162461bcd60e51b81526004016105a990611365565b3360009081526020818152604080832084845290915290205460ff1615610d535760405162461bcd60e51b815260206004820152601760248201527f596f75206861766520616c726561647920766f7465642e00000000000000000060448201526064016105a9565b6001826007016000828254610d6891906114d7565b90915550503360009081526020818152604080832093835292905220805460ff1916600117905550565b600060208284031215610da457600080fd5b5035919050565b6000815180845260005b81811015610dd157602081850181015186830182015201610db5565b506000602082860101526020601f19601f83011685010191505092915050565b60006020808301818452808551808352604092508286019150828160051b87010184880160005b83811015610f4557603f1989840301855281516101e08151855288820151818a870152610e4782870182610dab565b91505087820151610e62898701826001600160a01b03169052565b5060608281015161ffff16908601526080808301516001600160a01b039081169187019190915260a0808401519091169086015260c0808301519086015260e0808301519086015261010080830151908601526101208083015186830382880152610ecd8382610dab565b9250505061014080830151610ef78288018280516001600160a01b03168252602090810151910152565b5050610160820151610180610f0f8188018315159052565b83015190506101a0610f248782018315159052565b92909201516101c09590950194909452509386019390860190600101610e18565b509098975050505050505050565b634e487b7160e01b600052604160045260246000fd5b604051610120810167ffffffffffffffff81118282101715610f8d57610f8d610f53565b60405290565b600082601f830112610fa457600080fd5b813567ffffffffffffffff80821115610fbf57610fbf610f53565b604051601f8301601f19908116603f01168101908282118183101715610fe757610fe7610f53565b8160405283815286602085880101111561100057600080fd5b836020870160208301376000602085830101528094505050505092915050565b803561ffff8116811461103257600080fd5b919050565b80356001600160a01b038116811461103257600080fd5b60006040828403121561106057600080fd5b6040516040810181811067ffffffffffffffff8211171561108357611083610f53565b60405290508061109283611037565b8152602083013560208201525092915050565b6000602082840312156110b757600080fd5b813567ffffffffffffffff808211156110cf57600080fd5b9083019061014082860312156110e457600080fd5b6110ec610f69565b8235828111156110fb57600080fd5b61110787828601610f93565b82525061111660208401611020565b602082015261112760408401611037565b604082015261113860608401611037565b60608201526080830135608082015260a083013560a082015261115d60c08401611020565b60c082015261116f8660e0850161104e565b60e08201526101208301358281111561118757600080fd5b61119387828601610f93565b6101008301525095945050505050565b600080604083850312156111b657600080fd5b50508035926020909101359150565b6000602082840312156111d757600080fd5b6111e082611037565b9392505050565b600080604083850312156111fa57600080fd5b61120383611037565b946020939093013593505050565b6020808252825182820181905260009190848201906040850190845b818110156112525783516001600160a01b03168352928401929184019160010161122d565b50909695505050505050565b600181811c9082168061127257607f821691505b60208210810361129257634e487b7160e01b600052602260045260246000fd5b50919050565b61ffff8416815260006020848184015260606040840152600084546112bc8161125e565b80606087015260806001808416600081146112de57600181146112f857611326565b60ff1985168984015283151560051b890183019550611326565b896000528660002060005b8581101561131e5781548b8201860152908301908801611303565b8a0184019650505b50939a9950505050505050505050565b60006020828403121561134857600080fd5b5051919050565b634e487b7160e01b600052603260045260246000fd5b60208082526023908201527f50726f706f73616c2068617320616c7265616479206265656e2065786563757460408201526232b21760e91b606082015260800190565b601f82111561078f57600081815260208120601f850160051c810160208610156113cf5750805b601f850160051c820191505b81811015610c71578281556001016113db565b815167ffffffffffffffff81111561140857611408610f53565b61141c81611416845461125e565b846113a8565b602080601f83116001811461145157600084156114395750858301515b600019600386901b1c1916600185901b178555610c71565b600085815260208120601f198616915b8281101561148057888601518255948401946001909101908401611461565b508582101561149e5787850151600019600388901b60f8161c191681555b5050505050600190811b01905550565b634e487b7160e01b600052601160045260246000fd5b81810381811115610915576109156114ae565b80820180821115610915576109156114ae56fea26469706673582212200a950c396d10470279f166557a4beaf6b5d212fea244d45c7c8569db6164607b64736f6c63430008140033",
    "linkReferences": {}
  },
  "methodIdentifiers": {
    "createProposal((string,uint16,address,address,uint256,uint256,uint16,(address,uint256),bytes))": "596d1a8e",
    "executeProposal(uint256)": "0d61b519",
    "isCouncil(address)": "9aa360ec",
    "releaseLockedNFT(uint256)": "b744cc2b",
    "resources()": "f03906f5",
    "returnAllCouncil()": "da78b294",
    "returnAllProposal()": "28b84813",
    "stakeAndVote(uint256,uint256)": "5e2c8391",
    "voted(address,uint256)": "c591aa98"
  },
  "id": 20
}