{
  "abi": [
    {
      "inputs": [
        {
          "internalType": "address",
          "name": "_mailboxAddress",
          "type": "address"
        },
        {
          "internalType": "address",
          "name": "_paymaster",
          "type": "address"
        },
        {
          "internalType": "address[]",
          "name": "_council",
          "type": "address[]"
        },
        {
          "internalType": "address",
          "name": "_nftLock",
          "type": "address"
        }
      ],
      "stateMutability": "nonpayable",
      "type": "constructor"
    },
    {
      "anonymous": false,
      "inputs": [
        {
          "indexed": true,
          "internalType": "uint256",
          "name": "id",
          "type": "uint256"
        }
      ],
      "name": "ProposalCreated",
      "type": "event"
    },
    {
      "anonymous": false,
      "inputs": [
        {
          "indexed": true,
          "internalType": "uint256",
          "name": "proposalId",
          "type": "uint256"
        }
      ],
      "name": "ProposalExecuted",
      "type": "event"
    },
    {
      "anonymous": false,
      "inputs": [
        {
          "indexed": true,
          "internalType": "uint256",
          "name": "proposalId",
          "type": "uint256"
        },
        {
          "indexed": true,
          "internalType": "address",
          "name": "voter",
          "type": "address"
        },
        {
          "indexed": false,
          "internalType": "bool",
          "name": "support",
          "type": "bool"
        }
      ],
      "name": "VoteCasted",
      "type": "event"
    },
    {
      "inputs": [
        {
          "components": [
            {
              "internalType": "string",
              "name": "description",
              "type": "string"
            },
            {
              "internalType": "uint16",
              "name": "targetChain",
              "type": "uint16"
            },
            {
              "internalType": "address",
              "name": "targetAddress",
              "type": "address"
            },
            {
              "internalType": "address",
              "name": "tokenAddressSource",
              "type": "address"
            },
            {
              "internalType": "uint256",
              "name": "sourceValue",
              "type": "uint256"
            },
            {
              "internalType": "uint256",
              "name": "endDate",
              "type": "uint256"
            },
            {
              "internalType": "uint16",
              "name": "voteNeeded",
              "type": "uint16"
            },
            {
              "internalType": "address",
              "name": "nftAddress",
              "type": "address"
            },
            {
              "internalType": "string",
              "name": "groupId",
              "type": "string"
            },
            {
              "internalType": "bytes",
              "name": "messageBody",
              "type": "bytes"
            }
          ],
          "internalType": "struct Governance.ProposalInput",
          "name": "input",
          "type": "tuple"
        }
      ],
      "name": "createProposal",
      "outputs": [],
      "stateMutability": "nonpayable",
      "type": "function"
    },
    {
      "inputs": [
        {
          "internalType": "uint256",
          "name": "proposalId",
          "type": "uint256"
        }
      ],
      "name": "executeProposal",
      "outputs": [],
      "stateMutability": "payable",
      "type": "function"
    },
    {
      "inputs": [],
      "name": "getGovernanceAndNFTLockAddresses",
      "outputs": [
        {
          "internalType": "address",
          "name": "governanceAddr",
          "type": "address"
        },
        {
          "internalType": "address",
          "name": "nftLockAddr",
          "type": "address"
        }
      ],
      "stateMutability": "view",
      "type": "function"
    },
    {
      "inputs": [
        {
          "internalType": "address",
          "name": "",
          "type": "address"
        }
      ],
      "name": "isCouncil",
      "outputs": [
        {
          "internalType": "bool",
          "name": "",
          "type": "bool"
        }
      ],
      "stateMutability": "view",
      "type": "function"
    },
    {
      "inputs": [
        {
          "internalType": "uint256",
          "name": "proposalId",
          "type": "uint256"
        }
      ],
      "name": "releaseLockedNFT",
      "outputs": [],
      "stateMutability": "nonpayable",
      "type": "function"
    },
    {
      "inputs": [],
      "name": "resources",
      "outputs": [
        {
          "internalType": "contract IMailbox",
          "name": "mailbox",
          "type": "address"
        },
        {
          "internalType": "contract IInterchainGasPaymaster",
          "name": "paymaster",
          "type": "address"
        },
        {
          "internalType": "contract NFTLock",
          "name": "nftLock",
          "type": "address"
        }
      ],
      "stateMutability": "view",
      "type": "function"
    },
    {
      "inputs": [],
      "name": "returnAllCouncil",
      "outputs": [
        {
          "internalType": "address[]",
          "name": "",
          "type": "address[]"
        }
      ],
      "stateMutability": "view",
      "type": "function"
    },
    {
      "inputs": [],
      "name": "returnAllProposal",
      "outputs": [
        {
          "components": [
            {
              "internalType": "uint256",
              "name": "id",
              "type": "uint256"
            },
            {
              "internalType": "string",
              "name": "description",
              "type": "string"
            },
            {
              "internalType": "address",
              "name": "proposedAddress",
              "type": "address"
            },
            {
              "internalType": "uint16",
              "name": "targetChain",
              "type": "uint16"
            },
            {
              "internalType": "address",
              "name": "targetAddress",
              "type": "address"
            },
            {
              "internalType": "address",
              "name": "tokenAddressSource",
              "type": "address"
            },
            {
              "internalType": "uint256",
              "name": "sourceValue",
              "type": "uint256"
            },
            {
              "internalType": "uint256",
              "name": "votesNeeded",
              "type": "uint256"
            },
            {
              "internalType": "uint256",
              "name": "votes",
              "type": "uint256"
            },
            {
              "internalType": "bytes",
              "name": "messageBody",
              "type": "bytes"
            },
            {
              "internalType": "address",
              "name": "nftAddress",
              "type": "address"
            },
            {
              "internalType": "string",
              "name": "groupId",
              "type": "string"
            },
            {
              "internalType": "bool",
              "name": "executed",
              "type": "bool"
            },
            {
              "internalType": "bool",
              "name": "readyToExecute",
              "type": "bool"
            },
            {
              "internalType": "bool",
              "name": "ended",
              "type": "bool"
            },
            {
              "internalType": "uint256",
              "name": "endDate",
              "type": "uint256"
            }
          ],
          "internalType": "struct Governance.Proposal[]",
          "name": "",
          "type": "tuple[]"
        }
      ],
      "stateMutability": "view",
      "type": "function"
    },
    {
      "inputs": [
        {
          "internalType": "uint256",
          "name": "proposalId",
          "type": "uint256"
        },
        {
          "internalType": "uint256",
          "name": "tokenId",
          "type": "uint256"
        }
      ],
      "name": "stakeAndVote",
      "outputs": [],
      "stateMutability": "nonpayable",
      "type": "function"
    },
    {
      "inputs": [
        {
          "internalType": "address",
          "name": "",
          "type": "address"
        },
        {
          "internalType": "uint256",
          "name": "",
          "type": "uint256"
        }
      ],
      "name": "voted",
      "outputs": [
        {
          "internalType": "bool",
          "name": "",
          "type": "bool"
        }
      ],
      "stateMutability": "view",
      "type": "function"
    }
  ],
  "bytecode": {
    "object": "0x60806040523480156200001157600080fd5b50604051620018ca380380620018ca8339810160408190526200003491620001d5565b600280546001600160a01b038087166001600160a01b03199283161790925560038054928616929091169190911790556200006f8262000099565b600480546001600160a01b0319166001600160a01b03929092169190911790555062000320915050565b8051620000ae90600590602084019062000121565b5060005b81518110156200011d576001806000848481518110620000d657620000d6620002e2565b6020908102919091018101516001600160a01b03168252810191909152604001600020805460ff1916911515919091179055806200011481620002f8565b915050620000b2565b5050565b82805482825590600052602060002090810192821562000179579160200282015b828111156200017957825182546001600160a01b0319166001600160a01b0390911617825560209092019160019091019062000142565b50620001879291506200018b565b5090565b5b808211156200018757600081556001016200018c565b80516001600160a01b0381168114620001ba57600080fd5b919050565b634e487b7160e01b600052604160045260246000fd5b60008060008060808587031215620001ec57600080fd5b620001f785620001a2565b9350602062000208818701620001a2565b60408701519094506001600160401b03808211156200022657600080fd5b818801915088601f8301126200023b57600080fd5b815181811115620002505762000250620001bf565b8060051b604051601f19603f83011681018181108582111715620002785762000278620001bf565b60405291825284820192508381018501918b8311156200029757600080fd5b938501935b82851015620002c057620002b085620001a2565b845293850193928501926200029c565b809750505050505050620002d760608601620001a2565b905092959194509250565b634e487b7160e01b600052603260045260246000fd5b6000600182016200031957634e487b7160e01b600052601160045260246000fd5b5060010190565b61159a80620003306000396000f3fe6080604052600436106100915760003560e01c80639aa360ec116100595780639aa360ec1461013f578063b744cc2b1461017f578063c591aa981461019f578063da78b294146101d7578063f03906f5146101f957600080fd5b80630d61b5191461009657806323a25936146100ab57806328b84813146100dd5780635e2c8391146100ff57806365cb906d1461011f575b600080fd5b6100a96100a4366004610e23565b610250565b005b3480156100b757600080fd5b50600454604080513081526001600160a01b039092166020830152015b60405180910390f35b3480156100e957600080fd5b506100f2610398565b6040516100d49190610e82565b34801561010b57600080fd5b506100a961011a366004610ff5565b610670565b34801561012b57600080fd5b506100a961013a366004611112565b6106a7565b34801561014b57600080fd5b5061016f61015a366004611237565b60016020526000908152604090205460ff1681565b60405190151581526020016100d4565b34801561018b57600080fd5b506100a961019a366004610e23565b61080d565b3480156101ab57600080fd5b5061016f6101ba366004611259565b600060208181529281526040808220909352908152205460ff1681565b3480156101e357600080fd5b506101ec61086c565b6040516100d49190611283565b34801561020557600080fd5b50600254600354600454610226926001600160a01b03908116928116911683565b604080516001600160a01b03948516815292841660208401529216918101919091526060016100d4565b600061025b826108d1565b6003810154909150620186a09060009060601b6bffffffffffffffffffffffff1916600280549085015460405163fa31de0160e01b81529293506000926001600160a01b039092169163fa31de01916102ca91600160a01b90910461ffff1690869060088a019060040161130a565b6020604051808303816000875af11580156102e9573d6000803e3d6000fd5b505050506040513d601f19601f8201168201806040525081019061030d91906113a8565b6003546002860154604051630237e58360e31b815260048101849052600160a01b90910461ffff166024820152604481018690523360648201529192506001600160a01b0316906311bf2c189034906084016000604051808303818588803b15801561037857600080fd5b505af115801561038c573d6000803e3d6000fd5b50505050505050505050565b60606002600401805480602002602001604051908101604052809291908181526020016000905b8282101561066757838290600052602060002090600d020160405180610200016040529081600082015481526020016001820180546103fd906112d0565b80601f0160208091040260200160405190810160405280929190818152602001828054610429906112d0565b80156104765780601f1061044b57610100808354040283529160200191610476565b820191906000526020600020905b81548152906001019060200180831161045957829003601f168201915b505050918352505060028201546001600160a01b038082166020840152600160a01b90910461ffff1660408301526003830154811660608301526004830154166080820152600582015460a0820152600682015460c0820152600782015460e0820152600882018054610100909201916104ef906112d0565b80601f016020809104026020016040519081016040528092919081815260200182805461051b906112d0565b80156105685780601f1061053d57610100808354040283529160200191610568565b820191906000526020600020905b81548152906001019060200180831161054b57829003601f168201915b505050918352505060098201546001600160a01b03166020820152600a82018054604090920191610598906112d0565b80601f01602080910402602001604051908101604052809291908181526020018280546105c4906112d0565b80156106115780601f106105e657610100808354040283529160200191610611565b820191906000526020600020905b8154815290600101906020018083116105f457829003601f168201915b5050509183525050600b82015460ff80821615156020808501919091526101008304821615156040850152620100009092041615156060830152600c9092015460809091015290825260019290920191016103bf565b50505050905090565b600060026004018381548110610688576106886113c1565b90600052602060002090600d020190506106a28184610a49565b505050565b3360009081526001602052604090205460ff166107175760405162461bcd60e51b8152602060048201526024808201527f4f6e6c7920636f756e63696c732063616e2063616c6c20746869732066756e636044820152633a34b7b760e11b60648201526084015b60405180910390fd5b8060018160c0015161ffff1610156107675760405162461bcd60e51b8152602060048201526013602482015272566f7465206e656564656420746f6f206c6f7760681b604482015260640161070e565b60648160c0015161ffff1611156107b75760405162461bcd60e51b81526020600482015260146024820152730acdee8ca40dccacac8cac840e8dede40d0d2ced60631b604482015260640161070e565b428160a0015110156108005760405162461bcd60e51b8152602060048201526012602482015271111d5c985d1a5bdb881d1bdbc81cda1bdc9d60721b604482015260640161070e565b61080982610b84565b5050565b60048054604051635e5ba8d760e01b81529182018390526001600160a01b031690635e5ba8d790602401600060405180830381600087803b15801561085157600080fd5b505af1158015610865573d6000803e3d6000fd5b5050505050565b606060026003018054806020026020016040519081016040528092919081815260200182805480156108c757602002820191906000526020600020905b81546001600160a01b031681526001909101906020018083116108a9575b5050505050905090565b600080600260040183815481106108ea576108ea6113c1565b60009182526020909120600d90910201600b81015490915060ff16156109225760405162461bcd60e51b815260040161070e906113d7565b80600601548160070154101561096e5760405162461bcd60e51b81526020600482015260116024820152702737ba1032b737bab3b4103b37ba32b99760791b604482015260640161070e565b60028101546001600160a01b031633146109d55760405162461bcd60e51b815260206004820152602260248201527f4f6e6c7920436f756e63696c2063616e20657865637574652070726f706f7361604482015261361760f11b606482015260840161070e565b60098101546001600160a01b0316610a2f5760405162461bcd60e51b815260206004820181905260248201527f4e6f204e4654206c6f636b656420666f7220746869732070726f706f73616c2e604482015260640161070e565b600b8101805462ff00ff1916620100011790555b92915050565b600b82015462010000900460ff1615610a965760405162461bcd60e51b815260206004820152600f60248201526e2b37ba32903430b99032b73232b21760891b604482015260640161070e565b600b82015460ff1615610abb5760405162461bcd60e51b815260040161070e906113d7565b3360009081526020818152604080832084845290915290205460ff1615610b245760405162461bcd60e51b815260206004820152601760248201527f596f75206861766520616c726561647920766f7465642e000000000000000000604482015260640161070e565b6001826007016000828254610b399190611430565b90915550506006820154600783015410610b5f57600b8201805461ff0019166101001790555b3360009081526020818152604080832093835292905220805460ff1916600117905550565b60408051610200810182526006805480835284516020808501918252338587015286015161ffff908116606080870191909152958701516001600160a01b0390811660808088019190915296880151811660a0808801919091529688015160c08088019190915288015190911660e0808701919091526000610100808801829052610120808b0151908901529189015190921661014087015287015161016086015261018085018190526101a085018190526101c08501819052948601516101e0850152600182018355919093528151600d9093027ff652222313e28459528d920b65115c16c04f3efc82aaedc97be59f3f377c0d3f810193845590519192917ff652222313e28459528d920b65115c16c04f3efc82aaedc97be59f3f377c0d4090910190610cb39082611491565b506040820151600282018054606085015161ffff16600160a01b026001600160b01b03199091166001600160a01b039384161717905560808301516003830180549183166001600160a01b031992831617905560a084015160048401805491909316911617905560c0820151600582015560e0820151600682015561010082015160078201556101208201516008820190610d4e9082611491565b506101408201516009820180546001600160a01b0319166001600160a01b03909216919091179055610160820151600a820190610d8b9082611491565b50610180820151600b820180546101a08501516101c08601511515620100000262ff0000199115156101000261ff00199515159590951661ffff199093169290921793909317929092169190911790556101e090910151600c90910155600654610df790600190611551565b6040517fc2c021f5d73c63c481d336fbbafec58f694fc45095f00b02d2deb8cca59afe0790600090a250565b600060208284031215610e3557600080fd5b5035919050565b6000815180845260005b81811015610e6257602081850181015186830182015201610e46565b506000602082860101526020601f19601f83011685010191505092915050565b60006020808301818452808551808352604092508286019150828160051b87010184880160005b83811015610fe757603f1989840301855281516102008151855288820151818a870152610ed882870182610e3c565b91505087820151610ef3898701826001600160a01b03169052565b5060608281015161ffff16908601526080808301516001600160a01b039081169187019190915260a0808401519091169086015260c0808301519086015260e0808301519086015261010080830151908601526101208083015186830382880152610f5e8382610e3c565b9250505061014080830151610f7d828801826001600160a01b03169052565b50506101608083015186830382880152610f978382610e3c565b9250505061018080830151610faf8288018215159052565b50506101a0828101511515908601526101c0808301511515908601526101e09182015191909401529386019390860190600101610ea9565b509098975050505050505050565b6000806040838503121561100857600080fd5b50508035926020909101359150565b634e487b7160e01b600052604160045260246000fd5b604051610140810167ffffffffffffffff8111828210171561105157611051611017565b60405290565b600082601f83011261106857600080fd5b813567ffffffffffffffff8082111561108357611083611017565b604051601f8301601f19908116603f011681019082821181831017156110ab576110ab611017565b816040528381528660208588010111156110c457600080fd5b836020870160208301376000602085830101528094505050505092915050565b803561ffff811681146110f657600080fd5b919050565b80356001600160a01b03811681146110f657600080fd5b60006020828403121561112457600080fd5b813567ffffffffffffffff8082111561113c57600080fd5b90830190610140828603121561115157600080fd5b61115961102d565b82358281111561116857600080fd5b61117487828601611057565b825250611183602084016110e4565b6020820152611194604084016110fb565b60408201526111a5606084016110fb565b60608201526080830135608082015260a083013560a08201526111ca60c084016110e4565b60c08201526111db60e084016110fb565b60e082015261010080840135838111156111f457600080fd5b61120088828701611057565b828401525050610120808401358381111561121a57600080fd5b61122688828701611057565b918301919091525095945050505050565b60006020828403121561124957600080fd5b611252826110fb565b9392505050565b6000806040838503121561126c57600080fd5b611275836110fb565b946020939093013593505050565b6020808252825182820181905260009190848201906040850190845b818110156112c45783516001600160a01b03168352928401929184019160010161129f565b50909695505050505050565b600181811c908216806112e457607f821691505b60208210810361130457634e487b7160e01b600052602260045260246000fd5b50919050565b61ffff84168152600060208481840152606060408401526000845461132e816112d0565b8060608701526080600180841660008114611350576001811461136a57611398565b60ff1985168984015283151560051b890183019550611398565b896000528660002060005b858110156113905781548b8201860152908301908801611375565b8a0184019650505b50939a9950505050505050505050565b6000602082840312156113ba57600080fd5b5051919050565b634e487b7160e01b600052603260045260246000fd5b60208082526023908201527f50726f706f73616c2068617320616c7265616479206265656e2065786563757460408201526232b21760e91b606082015260800190565b634e487b7160e01b600052601160045260246000fd5b80820180821115610a4357610a4361141a565b601f8211156106a257600081815260208120601f850160051c8101602086101561146a5750805b601f850160051c820191505b8181101561148957828155600101611476565b505050505050565b815167ffffffffffffffff8111156114ab576114ab611017565b6114bf816114b984546112d0565b84611443565b602080601f8311600181146114f457600084156114dc5750858301515b600019600386901b1c1916600185901b178555611489565b600085815260208120601f198616915b8281101561152357888601518255948401946001909101908401611504565b50858210156115415787850151600019600388901b60f8161c191681555b5050505050600190811b01905550565b81810381811115610a4357610a4361141a56fea26469706673582212206252a30757af3aebdf298cfe8468b4a6cbef8b5c7365598ff3d11c6e70c03c3f64736f6c63430008140033",
    "linkReferences": {}
  },
  "methodIdentifiers": {
    "createProposal((string,uint16,address,address,uint256,uint256,uint16,address,string,bytes))": "65cb906d",
    "executeProposal(uint256)": "0d61b519",
    "getGovernanceAndNFTLockAddresses()": "23a25936",
    "isCouncil(address)": "9aa360ec",
    "releaseLockedNFT(uint256)": "b744cc2b",
    "resources()": "f03906f5",
    "returnAllCouncil()": "da78b294",
    "returnAllProposal()": "28b84813",
    "stakeAndVote(uint256,uint256)": "5e2c8391",
    "voted(address,uint256)": "c591aa98"
  },
  "id": 51
}