{
  "abi": [
    {
      "inputs": [
        {
          "internalType": "uint256",
          "name": "_minimumVotes",
          "type": "uint256"
        },
        {
          "internalType": "address",
          "name": "_gasPaymaster",
          "type": "address"
        },
        {
          "internalType": "address",
          "name": "_mailboxAddress",
          "type": "address"
        },
        {
          "internalType": "contract IERC20",
          "name": "_stakingToken",
          "type": "address"
        }
      ],
      "stateMutability": "nonpayable",
      "type": "constructor"
    },
    {
      "anonymous": false,
      "inputs": [
        {
          "indexed": true,
          "internalType": "uint256",
          "name": "id",
          "type": "uint256"
        }
      ],
      "name": "ProposalCreated",
      "type": "event"
    },
    {
      "anonymous": false,
      "inputs": [
        {
          "indexed": true,
          "internalType": "uint256",
          "name": "proposalId",
          "type": "uint256"
        }
      ],
      "name": "ProposalExecuted",
      "type": "event"
    },
    {
      "anonymous": false,
      "inputs": [
        {
          "indexed": true,
          "internalType": "address",
          "name": "user",
          "type": "address"
        },
        {
          "indexed": false,
          "internalType": "uint256",
          "name": "amount",
          "type": "uint256"
        }
      ],
      "name": "Staked",
      "type": "event"
    },
    {
      "anonymous": false,
      "inputs": [
        {
          "indexed": true,
          "internalType": "address",
          "name": "user",
          "type": "address"
        },
        {
          "indexed": false,
          "internalType": "uint256",
          "name": "amount",
          "type": "uint256"
        }
      ],
      "name": "Unstaked",
      "type": "event"
    },
    {
      "anonymous": false,
      "inputs": [
        {
          "indexed": true,
          "internalType": "uint256",
          "name": "proposalId",
          "type": "uint256"
        },
        {
          "indexed": true,
          "internalType": "address",
          "name": "voter",
          "type": "address"
        },
        {
          "indexed": false,
          "internalType": "bool",
          "name": "support",
          "type": "bool"
        }
      ],
      "name": "VoteCasted",
      "type": "event"
    },
    {
      "inputs": [
        {
          "internalType": "address",
          "name": "",
          "type": "address"
        },
        {
          "internalType": "uint256",
          "name": "",
          "type": "uint256"
        }
      ],
      "name": "balances",
      "outputs": [
        {
          "internalType": "uint256",
          "name": "",
          "type": "uint256"
        }
      ],
      "stateMutability": "view",
      "type": "function"
    },
    {
      "inputs": [
        {
          "components": [
            {
              "internalType": "uint16",
              "name": "targetChain",
              "type": "uint16"
            },
            {
              "internalType": "address",
              "name": "targetAddress",
              "type": "address"
            },
            {
              "internalType": "address",
              "name": "tokenAddressSource",
              "type": "address"
            },
            {
              "internalType": "address",
              "name": "tokenAddressDestination",
              "type": "address"
            },
            {
              "internalType": "uint256",
              "name": "sourceValue",
              "type": "uint256"
            },
            {
              "internalType": "uint256",
              "name": "destinationValue",
              "type": "uint256"
            },
            {
              "internalType": "uint256",
              "name": "duration",
              "type": "uint256"
            },
            {
              "internalType": "uint16",
              "name": "voteNeeded",
              "type": "uint16"
            },
            {
              "internalType": "bytes",
              "name": "messageBody",
              "type": "bytes"
            }
          ],
          "internalType": "struct Governance.ProposalInput",
          "name": "input",
          "type": "tuple"
        }
      ],
      "name": "createProposal",
      "outputs": [],
      "stateMutability": "nonpayable",
      "type": "function"
    },
    {
      "inputs": [
        {
          "internalType": "uint256",
          "name": "proposalId",
          "type": "uint256"
        }
      ],
      "name": "execute",
      "outputs": [],
      "stateMutability": "payable",
      "type": "function"
    },
    {
      "inputs": [],
      "name": "gasPaymaster",
      "outputs": [
        {
          "internalType": "contract IInterchainGasPaymaster",
          "name": "",
          "type": "address"
        }
      ],
      "stateMutability": "view",
      "type": "function"
    },
    {
      "inputs": [],
      "name": "mailbox",
      "outputs": [
        {
          "internalType": "contract IMailbox",
          "name": "",
          "type": "address"
        }
      ],
      "stateMutability": "view",
      "type": "function"
    },
    {
      "inputs": [
        {
          "internalType": "uint256",
          "name": "",
          "type": "uint256"
        }
      ],
      "name": "proposals",
      "outputs": [
        {
          "internalType": "uint256",
          "name": "id",
          "type": "uint256"
        },
        {
          "internalType": "address",
          "name": "proposedAddress",
          "type": "address"
        },
        {
          "internalType": "uint16",
          "name": "targetChain",
          "type": "uint16"
        },
        {
          "internalType": "address",
          "name": "targetAddress",
          "type": "address"
        },
        {
          "internalType": "address",
          "name": "tokenAddressSource",
          "type": "address"
        },
        {
          "internalType": "address",
          "name": "tokenAddressDestination",
          "type": "address"
        },
        {
          "internalType": "uint256",
          "name": "sourceValue",
          "type": "uint256"
        },
        {
          "internalType": "uint256",
          "name": "destinationValue",
          "type": "uint256"
        },
        {
          "internalType": "uint256",
          "name": "votesNeeded",
          "type": "uint256"
        },
        {
          "internalType": "uint256",
          "name": "votes",
          "type": "uint256"
        },
        {
          "internalType": "bytes",
          "name": "messageBody",
          "type": "bytes"
        },
        {
          "internalType": "bool",
          "name": "executed",
          "type": "bool"
        },
        {
          "internalType": "bool",
          "name": "ended",
          "type": "bool"
        },
        {
          "internalType": "uint256",
          "name": "duration",
          "type": "uint256"
        }
      ],
      "stateMutability": "view",
      "type": "function"
    },
    {
      "inputs": [],
      "name": "requiredStakeAmount",
      "outputs": [
        {
          "internalType": "uint256",
          "name": "",
          "type": "uint256"
        }
      ],
      "stateMutability": "view",
      "type": "function"
    },
    {
      "inputs": [
        {
          "internalType": "uint256",
          "name": "proposalId",
          "type": "uint256"
        }
      ],
      "name": "stakeAndVote",
      "outputs": [],
      "stateMutability": "nonpayable",
      "type": "function"
    },
    {
      "inputs": [],
      "name": "stakingToken",
      "outputs": [
        {
          "internalType": "contract IERC20",
          "name": "",
          "type": "address"
        }
      ],
      "stateMutability": "view",
      "type": "function"
    },
    {
      "inputs": [],
      "name": "totalStaked",
      "outputs": [
        {
          "internalType": "uint256",
          "name": "",
          "type": "uint256"
        }
      ],
      "stateMutability": "view",
      "type": "function"
    },
    {
      "inputs": [
        {
          "internalType": "address",
          "name": "",
          "type": "address"
        }
      ],
      "name": "userStakes",
      "outputs": [
        {
          "internalType": "uint256",
          "name": "",
          "type": "uint256"
        }
      ],
      "stateMutability": "view",
      "type": "function"
    },
    {
      "inputs": [
        {
          "internalType": "address",
          "name": "",
          "type": "address"
        },
        {
          "internalType": "uint256",
          "name": "",
          "type": "uint256"
        }
      ],
      "name": "voted",
      "outputs": [
        {
          "internalType": "bool",
          "name": "",
          "type": "bool"
        }
      ],
      "stateMutability": "view",
      "type": "function"
    },
    {
      "inputs": [
        {
          "internalType": "uint256",
          "name": "amount",
          "type": "uint256"
        }
      ],
      "name": "withdrawStake",
      "outputs": [],
      "stateMutability": "nonpayable",
      "type": "function"
    }
  ],
  "bytecode": {
    "object": "0x61010060405268056bc75e2d63100000600455620186a06005553480156200002657600080fd5b506040516200150c3803806200150c833981016040819052620000499162000086565b6080939093526001600160a01b0390811660a05290811660c0521660e052620000e2565b6001600160a01b03811681146200008357600080fd5b50565b600080600080608085870312156200009d57600080fd5b845193506020850151620000b1816200006d565b6040860151909350620000c4816200006d565b6060860151909250620000d7816200006d565b939692955090935050565b60805160a05160c05160e0516113d4620001386000396000818161015e0152818161046501526107080152600081816101aa0152610d4c0152600081816102e50152610c85015260006107c001526113d46000f3fe6080604052600436106100c25760003560e01c80638da7ad231161007f578063c591aa9811610059578063c591aa9814610253578063cbf1304d1461029e578063d5438eae146102d3578063fe0d94c11461030757600080fd5b80638da7ad23146101f0578063988efdc71461021d578063aa2857421461023d57600080fd5b8063013cf08b146100c75780630e67ffb41461010a57806325d5971f1461012c57806372f702f31461014c578063805ef6e814610198578063817b1cd2146101cc575b600080fd5b3480156100d357600080fd5b506100e76100e2366004610db8565b61031a565b6040516101019e9d9c9b9a99989796959493929190610e17565b60405180910390f35b34801561011657600080fd5b5061012a610125366004610db8565b61043f565b005b34801561013857600080fd5b5061012a610147366004610db8565b610669565b34801561015857600080fd5b506101807f000000000000000000000000000000000000000000000000000000000000000081565b6040516001600160a01b039091168152602001610101565b3480156101a457600080fd5b506101807f000000000000000000000000000000000000000000000000000000000000000081565b3480156101d857600080fd5b506101e260035481565b604051908152602001610101565b3480156101fc57600080fd5b506101e261020b366004610ed1565b60026020526000908152604090205481565b34801561022957600080fd5b5061012a610238366004610fd2565b6107be565b34801561024957600080fd5b506101e260045481565b34801561025f57600080fd5b5061028e61026e3660046110b7565b600160209081526000928352604080842090915290825290205460ff1681565b6040519015158152602001610101565b3480156102aa57600080fd5b506101e26102b93660046110b7565b600060208181529281526040808220909352908152205481565b3480156102df57600080fd5b506101807f000000000000000000000000000000000000000000000000000000000000000081565b61012a610315366004610db8565b610b93565b6006818154811061032a57600080fd5b60009182526020909120600c9091020180546001820154600283015460038401546004850154600586015460068701546007880154600889015460098a018054999b506001600160a01b03808a169b600160a01b909a0461ffff169a98811699978116989616969495939492939192916103a3906110e1565b80601f01602080910402602001604051908101604052809291908181526020018280546103cf906110e1565b801561041c5780601f106103f15761010080835404028352916020019161041c565b820191906000526020600020905b8154815290600101906020018083116103ff57829003601f168201915b50505050600a830154600b90930154919260ff808216936101009092041691508e565b600480546040516323b872dd60e01b8152339281019290925230602483015260448201527f00000000000000000000000000000000000000000000000000000000000000006001600160a01b0316906323b872dd906064016020604051808303816000875af11580156104b6573d6000803e3d6000fd5b505050506040513d601f19601f820116820180604052508101906104da919061111b565b61051c5760405162461bcd60e51b815260206004820152600e60248201526d14dd185ada5b99c819985a5b195960921b60448201526064015b60405180910390fd5b600454336000908152600260205260408120805490919061053e908490611153565b9250508190555060006006828154811061055a5761055a61116c565b90600052602060002090600c0201905080600a0160019054906101000a900460ff16156105bb5760405162461bcd60e51b815260206004820152600f60248201526e2b37ba32903430b99032b73232b21760891b6044820152606401610513565b600a81015460ff16156105e05760405162461bcd60e51b815260040161051390611182565b33600090815260016020908152604080832085845290915290205460ff161561064b5760405162461bcd60e51b815260206004820152601760248201527f596f75206861766520616c726561647920766f7465642e0000000000000000006044820152606401610513565b60018160080160008282546106609190611153565b90915550505050565b336000908152600260205260409020548111156106c85760405162461bcd60e51b815260206004820152601a60248201527f496e73756666696369656e74207374616b656420616d6f756e740000000000006044820152606401610513565b33600090815260026020526040812080548392906106e79084906111c5565b909155505060405163a9059cbb60e01b8152336004820152602481018290527f00000000000000000000000000000000000000000000000000000000000000006001600160a01b03169063a9059cbb906044016020604051808303816000875af1158015610759573d6000803e3d6000fd5b505050506040513d601f19601f8201168201806040525081019061077d919061111b565b6107bb5760405162461bcd60e51b815260206004820152600f60248201526e15da5d1a191c985dc819985a5b1959608a1b6044820152606401610513565b50565b7f00000000000000000000000000000000000000000000000000000000000000008160e0015161ffff16101561082c5760405162461bcd60e51b8152602060048201526013602482015272566f7465206e656564656420746f6f206c6f7760681b6044820152606401610513565b60648160e0015161ffff16111561087c5760405162461bcd60e51b81526020600482015260146024820152730acdee8ca40dccacac8cac840e8dede40d0d2ced60631b6044820152606401610513565b6102588160c0015110156108c75760405162461bcd60e51b8152602060048201526012602482015271111d5c985d1a5bdb881d1bdbc81cda1bdc9d60721b6044820152606401610513565b62278d008160c0015111156109125760405162461bcd60e51b81526020600482015260116024820152704475726174696f6e20746f6f206c6f6e6760781b6044820152606401610513565b6006604051806101c001604052806006805490508152602001336001600160a01b03168152602001836000015161ffff16815260200183602001516001600160a01b0316815260200183604001516001600160a01b0316815260200183606001516001600160a01b03168152602001836080015181526020018360a0015181526020018360e0015161ffff1681526020016000815260200183610100015181526020016000151581526020016000151581526020018360c0015181525090806001815401808255809150506001900390600052602060002090600c02016000909190919091506000820151816000015560208201518160010160006101000a8154816001600160a01b0302191690836001600160a01b0316021790555060408201518160010160146101000a81548161ffff021916908361ffff16021790555060608201518160020160006101000a8154816001600160a01b0302191690836001600160a01b0316021790555060808201518160030160006101000a8154816001600160a01b0302191690836001600160a01b0316021790555060a08201518160040160006101000a8154816001600160a01b0302191690836001600160a01b0316021790555060c0820151816005015560e0820151816006015561010082015181600701556101208201518160080155610140820151816009019081610b199190611227565b50610160820151600a8201805461018085015115156101000261ff00199315159390931661ffff19909116179190911790556101a090910151600b90910155600654610b67906001906111c5565b6040517fc2c021f5d73c63c481d336fbbafec58f694fc45095f00b02d2deb8cca59afe0790600090a250565b600060068281548110610ba857610ba861116c565b60009182526020909120600c90910201600a81015490915060ff1615610be05760405162461bcd60e51b815260040161051390611182565b600a810154610100900460ff1615610c3a5760405162461bcd60e51b815260206004820152601b60248201527f50726f706f73616c2068617320616c726561647920656e6465642e00000000006044820152606401610513565b600a8101805461ffff19166101011790556002810154600182015460405163fa31de0160e01b815260609290921b6bffffffffffffffffffffffff1916916000916001600160a01b037f0000000000000000000000000000000000000000000000000000000000000000169163fa31de0191610ccc91600160a01b90910461ffff1690869060098901906004016112e7565b6020604051808303816000875af1158015610ceb573d6000803e3d6000fd5b505050506040513d601f19601f82011682018060405250810190610d0f9190611385565b6001840154600554604051630237e58360e31b815260048101849052600160a01b90920461ffff16602483015260448201523360648201529091507f00000000000000000000000000000000000000000000000000000000000000006001600160a01b0316906311bf2c189034906084016000604051808303818588803b158015610d9957600080fd5b505af1158015610dad573d6000803e3d6000fd5b505050505050505050565b600060208284031215610dca57600080fd5b5035919050565b6000815180845260005b81811015610df757602081850181015186830182015201610ddb565b506000602082860101526020601f19601f83011685010191505092915050565b8e81526001600160a01b038e8116602083015261ffff8e1660408301528c1660608201526001600160a01b038b1660808201526001600160a01b038a1660a08201528860c08201528760e082015286610100820152856101208201526101c06101408201526000610e8c6101c0830187610dd1565b941515610160830152509115156101808301526101a0909101529b9a5050505050505050505050565b80356001600160a01b0381168114610ecc57600080fd5b919050565b600060208284031215610ee357600080fd5b610eec82610eb5565b9392505050565b634e487b7160e01b600052604160045260246000fd5b604051610120810167ffffffffffffffff81118282101715610f2d57610f2d610ef3565b60405290565b803561ffff81168114610ecc57600080fd5b600082601f830112610f5657600080fd5b813567ffffffffffffffff80821115610f7157610f71610ef3565b604051601f8301601f19908116603f01168101908282118183101715610f9957610f99610ef3565b81604052838152866020858801011115610fb257600080fd5b836020870160208301376000602085830101528094505050505092915050565b600060208284031215610fe457600080fd5b813567ffffffffffffffff80821115610ffc57600080fd5b90830190610120828603121561101157600080fd5b611019610f09565b61102283610f33565b815261103060208401610eb5565b602082015261104160408401610eb5565b604082015261105260608401610eb5565b60608201526080830135608082015260a083013560a082015260c083013560c082015261108160e08401610f33565b60e0820152610100808401358381111561109a57600080fd5b6110a688828701610f45565b918301919091525095945050505050565b600080604083850312156110ca57600080fd5b6110d383610eb5565b946020939093013593505050565b600181811c908216806110f557607f821691505b60208210810361111557634e487b7160e01b600052602260045260246000fd5b50919050565b60006020828403121561112d57600080fd5b81518015158114610eec57600080fd5b634e487b7160e01b600052601160045260246000fd5b808201808211156111665761116661113d565b92915050565b634e487b7160e01b600052603260045260246000fd5b60208082526023908201527f50726f706f73616c2068617320616c7265616479206265656e2065786563757460408201526232b21760e91b606082015260800190565b818103818111156111665761116661113d565b601f82111561122257600081815260208120601f850160051c810160208610156111ff5750805b601f850160051c820191505b8181101561121e5782815560010161120b565b5050505b505050565b815167ffffffffffffffff81111561124157611241610ef3565b6112558161124f84546110e1565b846111d8565b602080601f83116001811461128a57600084156112725750858301515b600019600386901b1c1916600185901b17855561121e565b600085815260208120601f198616915b828110156112b95788860151825594840194600190910190840161129a565b50858210156112d75787850151600019600388901b60f8161c191681555b5050505050600190811b01905550565b61ffff84168152600060208481840152606060408401526000845461130b816110e1565b806060870152608060018084166000811461132d576001811461134757611375565b60ff1985168984015283151560051b890183019550611375565b896000528660002060005b8581101561136d5781548b8201860152908301908801611352565b8a0184019650505b50939a9950505050505050505050565b60006020828403121561139757600080fd5b505191905056fea2646970667358221220035ff443ff6a54ff1cec32cb941db3b52dad13f5ce85b35785252b800c26aa0364736f6c63430008140033",
    "linkReferences": {}
  },
  "methodIdentifiers": {
    "balances(address,uint256)": "cbf1304d",
    "createProposal((uint16,address,address,address,uint256,uint256,uint256,uint16,bytes))": "988efdc7",
    "execute(uint256)": "fe0d94c1",
    "gasPaymaster()": "805ef6e8",
    "mailbox()": "d5438eae",
    "proposals(uint256)": "013cf08b",
    "requiredStakeAmount()": "aa285742",
    "stakeAndVote(uint256)": "0e67ffb4",
    "stakingToken()": "72f702f3",
    "totalStaked()": "817b1cd2",
    "userStakes(address)": "8da7ad23",
    "voted(address,uint256)": "c591aa98",
    "withdrawStake(uint256)": "25d5971f"
  },
  "id": 20
}