{
  "abi": [
    {
      "anonymous": false,
      "inputs": [
        {
          "indexed": false,
          "internalType": "address",
          "name": "governance",
          "type": "address"
        },
        {
          "indexed": false,
          "internalType": "string",
          "name": "name",
          "type": "string"
        }
      ],
      "name": "GovernanceCreated",
      "type": "event"
    },
    {
      "inputs": [
        {
          "internalType": "string",
          "name": "name",
          "type": "string"
        },
        {
          "internalType": "address",
          "name": "_mailboxAddress",
          "type": "address"
        },
        {
          "internalType": "address",
          "name": "_paymaster",
          "type": "address"
        },
        {
          "internalType": "address[]",
          "name": "_council",
          "type": "address[]"
        }
      ],
      "name": "createGovernance",
      "outputs": [
        {
          "internalType": "contract Governance",
          "name": "",
          "type": "address"
        }
      ],
      "stateMutability": "nonpayable",
      "type": "function"
    },
    {
      "inputs": [
        {
          "internalType": "uint256",
          "name": "index",
          "type": "uint256"
        }
      ],
      "name": "getGovernance",
      "outputs": [
        {
          "internalType": "address",
          "name": "",
          "type": "address"
        },
        {
          "internalType": "string",
          "name": "",
          "type": "string"
        }
      ],
      "stateMutability": "view",
      "type": "function"
    },
    {
      "inputs": [],
      "name": "getGovernances",
      "outputs": [
        {
          "internalType": "address[]",
          "name": "",
          "type": "address[]"
        },
        {
          "internalType": "string[]",
          "name": "",
          "type": "string[]"
        }
      ],
      "stateMutability": "view",
      "type": "function"
    },
    {
      "inputs": [
        {
          "internalType": "address",
          "name": "",
          "type": "address"
        }
      ],
      "name": "governanceNames",
      "outputs": [
        {
          "internalType": "string",
          "name": "",
          "type": "string"
        }
      ],
      "stateMutability": "view",
      "type": "function"
    },
    {
      "inputs": [
        {
          "internalType": "uint256",
          "name": "",
          "type": "uint256"
        }
      ],
      "name": "governances",
      "outputs": [
        {
          "internalType": "contract Governance",
          "name": "",
          "type": "address"
        }
      ],
      "stateMutability": "view",
      "type": "function"
    },
    {
      "inputs": [
        {
          "internalType": "uint256",
          "name": "",
          "type": "uint256"
        }
      ],
      "name": "nftLocks",
      "outputs": [
        {
          "internalType": "contract NFTLock",
          "name": "",
          "type": "address"
        }
      ],
      "stateMutability": "view",
      "type": "function"
    }
  ],
  "bytecode": {
    "object": "0x608060405234801561001057600080fd5b50612ad2806100206000396000f3fe60806040523480156200001157600080fd5b50600436106200006a5760003560e01c806360b21aaa146200006f5780636f442a98146200009e578063a622d45314620000b8578063d7978d1314620000df578063e4658d1f146200010f578063f05201e91462000126575b600080fd5b6200008662000080366004620006cf565b6200013d565b6040516200009591906200073c565b60405180910390f35b620000a8620001df565b6040516200009592919062000797565b620000cf620000c93660046200080f565b62000410565b6040516200009592919062000829565b620000f6620000f036600462000933565b620004f3565b6040516001600160a01b03909116815260200162000095565b620000f6620001203660046200080f565b6200065a565b620000f6620001373660046200080f565b62000685565b60026020526000908152604090208054620001589062000a1b565b80601f0160208091040260200160405190810160405280929190818152602001828054620001869062000a1b565b8015620001d75780601f10620001ab57610100808354040283529160200191620001d7565b820191906000526020600020905b815481529060010190602001808311620001b957829003601f168201915b505050505081565b600080546060918291908167ffffffffffffffff81111562000205576200020562000857565b6040519080825280602002602001820160405280156200022f578160200160208202803683370190505b50905060008267ffffffffffffffff81111562000250576200025062000857565b6040519080825280602002602001820160405280156200028557816020015b60608152602001906001900390816200026f5790505b50905060005b83811015620004055760008181548110620002aa57620002aa62000a57565b9060005260206000200160009054906101000a90046001600160a01b0316838281518110620002dd57620002dd62000a57565b60200260200101906001600160a01b031690816001600160a01b0316815250506002600084838151811062000316576200031662000a57565b60200260200101516001600160a01b03166001600160a01b0316815260200190815260200160002080546200034b9062000a1b565b80601f0160208091040260200160405190810160405280929190818152602001828054620003799062000a1b565b8015620003ca5780601f106200039e57610100808354040283529160200191620003ca565b820191906000526020600020905b815481529060010190602001808311620003ac57829003601f168201915b5050505050828281518110620003e457620003e462000a57565b60200260200101819052508080620003fc9062000a6d565b9150506200028b565b509094909350915050565b6000606060008084815481106200042b576200042b62000a57565b60009182526020808320909101546001600160a01b031680835260029091526040909120805491925082918190620004639062000a1b565b80601f0160208091040260200160405190810160405280929190818152602001828054620004919062000a1b565b8015620004e25780601f10620004b657610100808354040283529160200191620004e2565b820191906000526020600020905b815481529060010190602001808311620004c457829003601f168201915b505050505090509250925050915091565b600080604051620005049062000696565b604051809103906000f08015801562000521573d6000803e3d6000fd5b5060018054808201825560009182527fb10e2d527612073b26eecdfd717e6a320cf44b4afac2b0732d9fcbe2b7fa0cf60180546001600160a01b0319166001600160a01b0384161790556040519192509086908690869085906200058590620006a4565b62000594949392919062000a95565b604051809103906000f080158015620005b1573d6000803e3d6000fd5b50600080546001810182557f290decd9548b62a8d60345a988386fc84ba6bc95484008f6362f93160ef3e5630180546001600160a01b0319166001600160a01b038416908117909155815260026020526040902090915062000614888262000b28565b507f7043fc0efcff91f2c9a64645f52754549a68385ded8fc1def580bb6a1194b16681886040516200064892919062000829565b60405180910390a19695505050505050565b600181815481106200066b57600080fd5b6000918252602090912001546001600160a01b0316905081565b600081815481106200066b57600080fd5b6105d38062000bf683390190565b6118d480620011c983390190565b80356001600160a01b0381168114620006ca57600080fd5b919050565b600060208284031215620006e257600080fd5b620006ed82620006b2565b9392505050565b6000815180845260005b818110156200071c57602081850181015186830182015201620006fe565b506000602082860101526020601f19601f83011685010191505092915050565b602081526000620006ed6020830184620006f4565b600081518084526020808501945080840160005b838110156200078c5781516001600160a01b03168752958201959082019060010162000765565b509495945050505050565b604081526000620007ac604083018562000751565b6020838203818501528185518084528284019150828160051b85010183880160005b838110156200080057601f19878403018552620007ed838351620006f4565b94860194925090850190600101620007ce565b50909998505050505050505050565b6000602082840312156200082257600080fd5b5035919050565b6001600160a01b03831681526040602082018190526000906200084f90830184620006f4565b949350505050565b634e487b7160e01b600052604160045260246000fd5b604051601f8201601f1916810167ffffffffffffffff8111828210171562000899576200089962000857565b604052919050565b600082601f830112620008b357600080fd5b8135602067ffffffffffffffff821115620008d257620008d262000857565b8160051b620008e38282016200086d565b9283528481018201928281019087851115620008fe57600080fd5b83870192505b8483101562000928576200091883620006b2565b8252918301919083019062000904565b979650505050505050565b600080600080608085870312156200094a57600080fd5b843567ffffffffffffffff808211156200096357600080fd5b818701915087601f8301126200097857600080fd5b81356020828211156200098f576200098f62000857565b620009a3601f8301601f191682016200086d565b8281528a82848701011115620009b857600080fd5b828286018383013760008184018301529750620009d7898201620006b2565b96505050620009e960408801620006b2565b9350606087013591508082111562000a0057600080fd5b5062000a0f87828801620008a1565b91505092959194509250565b600181811c9082168062000a3057607f821691505b60208210810362000a5157634e487b7160e01b600052602260045260246000fd5b50919050565b634e487b7160e01b600052603260045260246000fd5b60006001820162000a8e57634e487b7160e01b600052601160045260246000fd5b5060010190565b600060018060a01b03808716835280861660208401526080604084015262000ac1608084018662000751565b915080841660608401525095945050505050565b601f82111562000b2357600081815260208120601f850160051c8101602086101562000afe5750805b601f850160051c820191505b8181101562000b1f5782815560010162000b0a565b5050505b505050565b815167ffffffffffffffff81111562000b455762000b4562000857565b62000b5d8162000b56845462000a1b565b8462000ad5565b602080601f83116001811462000b95576000841562000b7c5750858301515b600019600386901b1c1916600185901b17855562000b1f565b600085815260208120601f198616915b8281101562000bc65788860151825594840194600190910190840162000ba5565b508582101562000be55787850151600019600388901b60f8161c191681555b5050505050600190811b0190555056fe608060405234801561001057600080fd5b506105b3806100206000396000f3fe608060405234801561001057600080fd5b50600436106100625760003560e01c8063150b7a021461006757806351542b42146100a45780635e5ba8d7146100b95780636f8306c8146100cc5780639c271e6714610125578063a0ec96c114610177575b600080fd5b61008661007536600461041a565b630a85bd0160e11b95945050505050565b6040516001600160e01b031990911681526020015b60405180910390f35b6100b76100b23660046104b5565b6101b2565b005b6100b76100c73660046104ea565b6102ad565b6100b76100da366004610503565b6040805180820182526001600160a01b03938416815260208082019384529484166000908152948590529320925183546001600160a01b031916921691909117825551600190910155565b61015861013336600461052f565b600060208190529081526040902080546001909101546001600160a01b039091169082565b604080516001600160a01b03909316835260208301919091520161009b565b610158610185366004610551565b6001602081815260009384526040808520909152918352912080549101546001600160a01b039091169082565b604051632142170760e11b8152336004820152306024820152604481018290526001600160a01b038316906342842e0e90606401600060405180830381600087803b15801561020057600080fd5b505af1158015610214573d6000803e3d6000fd5b50506040805180820182526001600160a01b03868116808352602080840188815260008b815260018084528782203380845290855291889020965187546001600160a01b031916961695909517865590519490930193909355835190815291820186905293508692507f46868a5226a5978448f7d6f984870c12afcf34b6a85b7157ea88737ce35769d6910160405180910390a3505050565b6000818152600160208181526040808420338552825292839020835180850190945280546001600160a01b0316808552920154908301526103345760405162461bcd60e51b815260206004820181905260248201527f4e6f204e4654206c6f636b656420666f7220746869732070726f706f73616c2e604482015260640160405180910390fd5b80516020820151604051632142170760e11b815230600482015233602482015260448101919091526001600160a01b03909116906342842e0e90606401600060405180830381600087803b15801561038b57600080fd5b505af115801561039f573d6000803e3d6000fd5b505050600083815260016020818152604080842033808652925280842080546001600160a01b0319168155909201839055905190925084917fe5db67eb4a08037e976f0d7ed5cc52986dbf21d36f03bd33ed8cd2ddd793883c91a35050565b80356001600160a01b038116811461041557600080fd5b919050565b60008060008060006080868803121561043257600080fd5b61043b866103fe565b9450610449602087016103fe565b935060408601359250606086013567ffffffffffffffff8082111561046d57600080fd5b818801915088601f83011261048157600080fd5b81358181111561049057600080fd5b8960208285010111156104a257600080fd5b9699959850939650602001949392505050565b6000806000606084860312156104ca57600080fd5b833592506104da602085016103fe565b9150604084013590509250925092565b6000602082840312156104fc57600080fd5b5035919050565b60008060006060848603121561051857600080fd5b610521846103fe565b92506104da602085016103fe565b60006020828403121561054157600080fd5b61054a826103fe565b9392505050565b6000806040838503121561056457600080fd5b82359150610574602084016103fe565b9050925092905056fea26469706673582212209b118eee592ef91ae8dc42bb2bd82e3d70599afcc4e4af67e53b088f06cf3e8764736f6c6343000814003360806040523480156200001157600080fd5b50604051620018d4380380620018d48339810160408190526200003491620001d5565b600280546001600160a01b038087166001600160a01b03199283161790925560038054928616929091169190911790556200006f8262000099565b600480546001600160a01b0319166001600160a01b03929092169190911790555062000320915050565b8051620000ae90600590602084019062000121565b5060005b81518110156200011d576001806000848481518110620000d657620000d6620002e2565b6020908102919091018101516001600160a01b03168252810191909152604001600020805460ff1916911515919091179055806200011481620002f8565b915050620000b2565b5050565b82805482825590600052602060002090810192821562000179579160200282015b828111156200017957825182546001600160a01b0319166001600160a01b0390911617825560209092019160019091019062000142565b50620001879291506200018b565b5090565b5b808211156200018757600081556001016200018c565b80516001600160a01b0381168114620001ba57600080fd5b919050565b634e487b7160e01b600052604160045260246000fd5b60008060008060808587031215620001ec57600080fd5b620001f785620001a2565b9350602062000208818701620001a2565b60408701519094506001600160401b03808211156200022657600080fd5b818801915088601f8301126200023b57600080fd5b815181811115620002505762000250620001bf565b8060051b604051601f19603f83011681018181108582111715620002785762000278620001bf565b60405291825284820192508381018501918b8311156200029757600080fd5b938501935b82851015620002c057620002b085620001a2565b845293850193928501926200029c565b809750505050505050620002d760608601620001a2565b905092959194509250565b634e487b7160e01b600052603260045260246000fd5b6000600182016200031957634e487b7160e01b600052601160045260246000fd5b5060010190565b6115a480620003306000396000f3fe6080604052600436106100915760003560e01c80639aa360ec116100595780639aa360ec1461013f578063b744cc2b1461017f578063c591aa981461019f578063da78b294146101d7578063f03906f5146101f957600080fd5b80630d61b5191461009657806323a25936146100ab57806328b84813146100dd5780635e2c8391146100ff57806365cb906d1461011f575b600080fd5b6100a96100a4366004610e2d565b610250565b005b3480156100b757600080fd5b50600454604080513081526001600160a01b039092166020830152015b60405180910390f35b3480156100e957600080fd5b506100f261031a565b6040516100d49190610e8c565b34801561010b57600080fd5b506100a961011a366004610fff565b6105f2565b34801561012b57600080fd5b506100a961013a36600461111c565b610629565b34801561014b57600080fd5b5061016f61015a366004611241565b60016020526000908152604090205460ff1681565b60405190151581526020016100d4565b34801561018b57600080fd5b506100a961019a366004610e2d565b61078f565b3480156101ab57600080fd5b5061016f6101ba366004611263565b600060208181529281526040808220909352908152205460ff1681565b3480156101e357600080fd5b506101ec6107ee565b6040516100d4919061128d565b34801561020557600080fd5b50600254600354600454610226926001600160a01b03908116928116911683565b604080516001600160a01b03948516815292841660208401529216918101919091526060016100d4565b600061025b82610853565b600381015490915060009060601b6bffffffffffffffffffffffff1916600280549084015460405163fa31de0160e01b81529293506000926001600160a01b039092169163fa31de01916102c591600160a01b90910461ffff169086906008890190600401611314565b6020604051808303816000875af11580156102e4573d6000803e3d6000fd5b505050506040513d601f19601f8201168201806040525081019061030891906113b2565b905061031481846109cb565b50505050565b60606002600401805480602002602001604051908101604052809291908181526020016000905b828210156105e957838290600052602060002090600d0201604051806102000160405290816000820154815260200160018201805461037f906112da565b80601f01602080910402602001604051908101604052809291908181526020018280546103ab906112da565b80156103f85780601f106103cd576101008083540402835291602001916103f8565b820191906000526020600020905b8154815290600101906020018083116103db57829003601f168201915b505050918352505060028201546001600160a01b038082166020840152600160a01b90910461ffff1660408301526003830154811660608301526004830154166080820152600582015460a0820152600682015460c0820152600782015460e082015260088201805461010090920191610471906112da565b80601f016020809104026020016040519081016040528092919081815260200182805461049d906112da565b80156104ea5780601f106104bf576101008083540402835291602001916104ea565b820191906000526020600020905b8154815290600101906020018083116104cd57829003601f168201915b505050918352505060098201546001600160a01b03166020820152600a8201805460409092019161051a906112da565b80601f0160208091040260200160405190810160405280929190818152602001828054610546906112da565b80156105935780601f1061056857610100808354040283529160200191610593565b820191906000526020600020905b81548152906001019060200180831161057657829003601f168201915b5050509183525050600b82015460ff80821615156020808501919091526101008304821615156040850152620100009092041615156060830152600c909201546080909101529082526001929092019101610341565b50505050905090565b60006002600401838154811061060a5761060a6113cb565b90600052602060002090600d020190506106248184610a53565b505050565b3360009081526001602052604090205460ff166106995760405162461bcd60e51b8152602060048201526024808201527f4f6e6c7920636f756e63696c732063616e2063616c6c20746869732066756e636044820152633a34b7b760e11b60648201526084015b60405180910390fd5b8060018160c0015161ffff1610156106e95760405162461bcd60e51b8152602060048201526013602482015272566f7465206e656564656420746f6f206c6f7760681b6044820152606401610690565b60648160c0015161ffff1611156107395760405162461bcd60e51b81526020600482015260146024820152730acdee8ca40dccacac8cac840e8dede40d0d2ced60631b6044820152606401610690565b428160a0015110156107825760405162461bcd60e51b8152602060048201526012602482015271111d5c985d1a5bdb881d1bdbc81cda1bdc9d60721b6044820152606401610690565b61078b82610b8e565b5050565b60048054604051635e5ba8d760e01b81529182018390526001600160a01b031690635e5ba8d790602401600060405180830381600087803b1580156107d357600080fd5b505af11580156107e7573d6000803e3d6000fd5b5050505050565b6060600260030180548060200260200160405190810160405280929190818152602001828054801561084957602002820191906000526020600020905b81546001600160a01b0316815260019091019060200180831161082b575b5050505050905090565b6000806002600401838154811061086c5761086c6113cb565b60009182526020909120600d90910201600b81015490915060ff16156108a45760405162461bcd60e51b8152600401610690906113e1565b8060060154816007015410156108f05760405162461bcd60e51b81526020600482015260116024820152702737ba1032b737bab3b4103b37ba32b99760791b6044820152606401610690565b60028101546001600160a01b031633146109575760405162461bcd60e51b815260206004820152602260248201527f4f6e6c7920436f756e63696c2063616e20657865637574652070726f706f7361604482015261361760f11b6064820152608401610690565b60098101546001600160a01b03166109b15760405162461bcd60e51b815260206004820181905260248201527f4e6f204e4654206c6f636b656420666f7220746869732070726f706f73616c2e6044820152606401610690565b600b8101805462ff00ff1916620100011790555b92915050565b6003546002820154604051630237e58360e31b815260048101859052600160a01b90910461ffff16602482015261271060448201523360648201526001600160a01b03909116906311bf2c189034906084016000604051808303818588803b158015610a3657600080fd5b505af1158015610a4a573d6000803e3d6000fd5b50505050505050565b600b82015462010000900460ff1615610aa05760405162461bcd60e51b815260206004820152600f60248201526e2b37ba32903430b99032b73232b21760891b6044820152606401610690565b600b82015460ff1615610ac55760405162461bcd60e51b8152600401610690906113e1565b3360009081526020818152604080832084845290915290205460ff1615610b2e5760405162461bcd60e51b815260206004820152601760248201527f596f75206861766520616c726561647920766f7465642e0000000000000000006044820152606401610690565b6001826007016000828254610b43919061143a565b90915550506006820154600783015410610b6957600b8201805461ff0019166101001790555b3360009081526020818152604080832093835292905220805460ff1916600117905550565b60408051610200810182526006805480835284516020808501918252338587015286015161ffff908116606080870191909152958701516001600160a01b0390811660808088019190915296880151811660a0808801919091529688015160c08088019190915288015190911660e0808701919091526000610100808801829052610120808b0151908901529189015190921661014087015287015161016086015261018085018190526101a085018190526101c08501819052948601516101e0850152600182018355919093528151600d9093027ff652222313e28459528d920b65115c16c04f3efc82aaedc97be59f3f377c0d3f810193845590519192917ff652222313e28459528d920b65115c16c04f3efc82aaedc97be59f3f377c0d4090910190610cbd908261149b565b506040820151600282018054606085015161ffff16600160a01b026001600160b01b03199091166001600160a01b039384161717905560808301516003830180549183166001600160a01b031992831617905560a084015160048401805491909316911617905560c0820151600582015560e0820151600682015561010082015160078201556101208201516008820190610d58908261149b565b506101408201516009820180546001600160a01b0319166001600160a01b03909216919091179055610160820151600a820190610d95908261149b565b50610180820151600b820180546101a08501516101c08601511515620100000262ff0000199115156101000261ff00199515159590951661ffff199093169290921793909317929092169190911790556101e090910151600c90910155600654610e019060019061155b565b6040517fc2c021f5d73c63c481d336fbbafec58f694fc45095f00b02d2deb8cca59afe0790600090a250565b600060208284031215610e3f57600080fd5b5035919050565b6000815180845260005b81811015610e6c57602081850181015186830182015201610e50565b506000602082860101526020601f19601f83011685010191505092915050565b60006020808301818452808551808352604092508286019150828160051b87010184880160005b83811015610ff157603f1989840301855281516102008151855288820151818a870152610ee282870182610e46565b91505087820151610efd898701826001600160a01b03169052565b5060608281015161ffff16908601526080808301516001600160a01b039081169187019190915260a0808401519091169086015260c0808301519086015260e0808301519086015261010080830151908601526101208083015186830382880152610f688382610e46565b9250505061014080830151610f87828801826001600160a01b03169052565b50506101608083015186830382880152610fa18382610e46565b9250505061018080830151610fb98288018215159052565b50506101a0828101511515908601526101c0808301511515908601526101e09182015191909401529386019390860190600101610eb3565b509098975050505050505050565b6000806040838503121561101257600080fd5b50508035926020909101359150565b634e487b7160e01b600052604160045260246000fd5b604051610140810167ffffffffffffffff8111828210171561105b5761105b611021565b60405290565b600082601f83011261107257600080fd5b813567ffffffffffffffff8082111561108d5761108d611021565b604051601f8301601f19908116603f011681019082821181831017156110b5576110b5611021565b816040528381528660208588010111156110ce57600080fd5b836020870160208301376000602085830101528094505050505092915050565b803561ffff8116811461110057600080fd5b919050565b80356001600160a01b038116811461110057600080fd5b60006020828403121561112e57600080fd5b813567ffffffffffffffff8082111561114657600080fd5b90830190610140828603121561115b57600080fd5b611163611037565b82358281111561117257600080fd5b61117e87828601611061565b82525061118d602084016110ee565b602082015261119e60408401611105565b60408201526111af60608401611105565b60608201526080830135608082015260a083013560a08201526111d460c084016110ee565b60c08201526111e560e08401611105565b60e082015261010080840135838111156111fe57600080fd5b61120a88828701611061565b828401525050610120808401358381111561122457600080fd5b61123088828701611061565b918301919091525095945050505050565b60006020828403121561125357600080fd5b61125c82611105565b9392505050565b6000806040838503121561127657600080fd5b61127f83611105565b946020939093013593505050565b6020808252825182820181905260009190848201906040850190845b818110156112ce5783516001600160a01b0316835292840192918401916001016112a9565b50909695505050505050565b600181811c908216806112ee57607f821691505b60208210810361130e57634e487b7160e01b600052602260045260246000fd5b50919050565b61ffff841681526000602084818401526060604084015260008454611338816112da565b806060870152608060018084166000811461135a5760018114611374576113a2565b60ff1985168984015283151560051b8901830195506113a2565b896000528660002060005b8581101561139a5781548b820186015290830190880161137f565b8a0184019650505b50939a9950505050505050505050565b6000602082840312156113c457600080fd5b5051919050565b634e487b7160e01b600052603260045260246000fd5b60208082526023908201527f50726f706f73616c2068617320616c7265616479206265656e2065786563757460408201526232b21760e91b606082015260800190565b634e487b7160e01b600052601160045260246000fd5b808201808211156109c5576109c5611424565b601f82111561062457600081815260208120601f850160051c810160208610156114745750805b601f850160051c820191505b8181101561149357828155600101611480565b505050505050565b815167ffffffffffffffff8111156114b5576114b5611021565b6114c9816114c384546112da565b8461144d565b602080601f8311600181146114fe57600084156114e65750858301515b600019600386901b1c1916600185901b178555611493565b600085815260208120601f198616915b8281101561152d5788860151825594840194600190910190840161150e565b508582101561154b5787850151600019600388901b60f8161c191681555b5050505050600190811b01905550565b818103818111156109c5576109c561142456fea2646970667358221220e44f9e6971acf13de2d2bd00ec0d16bf44e3d2840a691647b6565797b94845a664736f6c63430008140033a2646970667358221220e58614fc6a133474b03320442cab5122c25881bf9b3439b592775bc5c9a2df4e64736f6c63430008140033",
    "linkReferences": {}
  },
  "methodIdentifiers": {
    "createGovernance(string,address,address,address[])": "d7978d13",
    "getGovernance(uint256)": "a622d453",
    "getGovernances()": "6f442a98",
    "governanceNames(address)": "60b21aaa",
    "governances(uint256)": "f05201e9",
    "nftLocks(uint256)": "e4658d1f"
  },
  "id": 48
}