{
  "abi": [
    {
      "inputs": [
        {
          "internalType": "address",
          "name": "_mailboxAddress",
          "type": "address"
        },
        {
          "internalType": "address",
          "name": "_paymaster",
          "type": "address"
        },
        {
          "internalType": "address[]",
          "name": "_council",
          "type": "address[]"
        },
        {
          "internalType": "address",
          "name": "_nftLock",
          "type": "address"
        }
      ],
      "stateMutability": "nonpayable",
      "type": "constructor"
    },
    {
      "anonymous": false,
      "inputs": [
        {
          "indexed": true,
          "internalType": "uint256",
          "name": "id",
          "type": "uint256"
        }
      ],
      "name": "ProposalCreated",
      "type": "event"
    },
    {
      "anonymous": false,
      "inputs": [
        {
          "indexed": true,
          "internalType": "uint256",
          "name": "proposalId",
          "type": "uint256"
        }
      ],
      "name": "ProposalExecuted",
      "type": "event"
    },
    {
      "anonymous": false,
      "inputs": [
        {
          "indexed": true,
          "internalType": "uint256",
          "name": "proposalId",
          "type": "uint256"
        },
        {
          "indexed": true,
          "internalType": "address",
          "name": "voter",
          "type": "address"
        },
        {
          "indexed": false,
          "internalType": "bool",
          "name": "support",
          "type": "bool"
        }
      ],
      "name": "VoteCasted",
      "type": "event"
    },
    {
      "inputs": [
        {
          "components": [
            {
              "internalType": "string",
              "name": "description",
              "type": "string"
            },
            {
              "internalType": "uint16",
              "name": "targetChain",
              "type": "uint16"
            },
            {
              "internalType": "address",
              "name": "targetAddress",
              "type": "address"
            },
            {
              "internalType": "address",
              "name": "tokenAddressSource",
              "type": "address"
            },
            {
              "internalType": "uint256",
              "name": "sourceValue",
              "type": "uint256"
            },
            {
              "internalType": "uint256",
              "name": "endDate",
              "type": "uint256"
            },
            {
              "internalType": "uint16",
              "name": "voteNeeded",
              "type": "uint16"
            },
            {
              "internalType": "address",
              "name": "nftAddress",
              "type": "address"
            },
            {
              "internalType": "string",
              "name": "groupId",
              "type": "string"
            },
            {
              "internalType": "bytes",
              "name": "messageBody",
              "type": "bytes"
            }
          ],
          "internalType": "struct Governance.ProposalInput",
          "name": "input",
          "type": "tuple"
        }
      ],
      "name": "createProposal",
      "outputs": [],
      "stateMutability": "nonpayable",
      "type": "function"
    },
    {
      "inputs": [
        {
          "internalType": "uint256",
          "name": "proposalId",
          "type": "uint256"
        }
      ],
      "name": "executeProposal",
      "outputs": [],
      "stateMutability": "payable",
      "type": "function"
    },
    {
      "inputs": [],
      "name": "getGovernanceAndNFTLockAddresses",
      "outputs": [
        {
          "internalType": "address",
          "name": "governanceAddr",
          "type": "address"
        },
        {
          "internalType": "address",
          "name": "nftLockAddr",
          "type": "address"
        }
      ],
      "stateMutability": "view",
      "type": "function"
    },
    {
      "inputs": [
        {
          "internalType": "address",
          "name": "",
          "type": "address"
        }
      ],
      "name": "isCouncil",
      "outputs": [
        {
          "internalType": "bool",
          "name": "",
          "type": "bool"
        }
      ],
      "stateMutability": "view",
      "type": "function"
    },
    {
      "inputs": [
        {
          "internalType": "uint256",
          "name": "proposalId",
          "type": "uint256"
        }
      ],
      "name": "releaseLockedNFT",
      "outputs": [],
      "stateMutability": "nonpayable",
      "type": "function"
    },
    {
      "inputs": [],
      "name": "resources",
      "outputs": [
        {
          "internalType": "contract IMailbox",
          "name": "mailbox",
          "type": "address"
        },
        {
          "internalType": "contract IInterchainGasPaymaster",
          "name": "paymaster",
          "type": "address"
        },
        {
          "internalType": "contract NFTLock",
          "name": "nftLock",
          "type": "address"
        }
      ],
      "stateMutability": "view",
      "type": "function"
    },
    {
      "inputs": [],
      "name": "returnAllCouncil",
      "outputs": [
        {
          "internalType": "address[]",
          "name": "",
          "type": "address[]"
        }
      ],
      "stateMutability": "view",
      "type": "function"
    },
    {
      "inputs": [],
      "name": "returnAllProposal",
      "outputs": [
        {
          "components": [
            {
              "internalType": "uint256",
              "name": "id",
              "type": "uint256"
            },
            {
              "internalType": "string",
              "name": "description",
              "type": "string"
            },
            {
              "internalType": "address",
              "name": "proposedAddress",
              "type": "address"
            },
            {
              "internalType": "uint16",
              "name": "targetChain",
              "type": "uint16"
            },
            {
              "internalType": "address",
              "name": "targetAddress",
              "type": "address"
            },
            {
              "internalType": "address",
              "name": "tokenAddressSource",
              "type": "address"
            },
            {
              "internalType": "uint256",
              "name": "sourceValue",
              "type": "uint256"
            },
            {
              "internalType": "uint256",
              "name": "votesNeeded",
              "type": "uint256"
            },
            {
              "internalType": "uint256",
              "name": "votes",
              "type": "uint256"
            },
            {
              "internalType": "bytes",
              "name": "messageBody",
              "type": "bytes"
            },
            {
              "internalType": "address",
              "name": "nftAddress",
              "type": "address"
            },
            {
              "internalType": "string",
              "name": "groupId",
              "type": "string"
            },
            {
              "internalType": "bool",
              "name": "executed",
              "type": "bool"
            },
            {
              "internalType": "bool",
              "name": "ended",
              "type": "bool"
            },
            {
              "internalType": "uint256",
              "name": "endDate",
              "type": "uint256"
            }
          ],
          "internalType": "struct Governance.Proposal[]",
          "name": "",
          "type": "tuple[]"
        }
      ],
      "stateMutability": "view",
      "type": "function"
    },
    {
      "inputs": [
        {
          "internalType": "uint256",
          "name": "proposalId",
          "type": "uint256"
        },
        {
          "internalType": "uint256",
          "name": "tokenId",
          "type": "uint256"
        }
      ],
      "name": "stakeAndVote",
      "outputs": [],
      "stateMutability": "nonpayable",
      "type": "function"
    },
    {
      "inputs": [
        {
          "internalType": "address",
          "name": "",
          "type": "address"
        },
        {
          "internalType": "uint256",
          "name": "",
          "type": "uint256"
        }
      ],
      "name": "voted",
      "outputs": [
        {
          "internalType": "bool",
          "name": "",
          "type": "bool"
        }
      ],
      "stateMutability": "view",
      "type": "function"
    }
  ],
  "bytecode": {
    "object": "0x60806040523480156200001157600080fd5b506040516200197f3803806200197f8339810160408190526200003491620001d5565b600280546001600160a01b038087166001600160a01b03199283161790925560038054928616929091169190911790556200006f8262000099565b600480546001600160a01b0319166001600160a01b03929092169190911790555062000320915050565b8051620000ae90600590602084019062000121565b5060005b81518110156200011d576001806000848481518110620000d657620000d6620002e2565b6020908102919091018101516001600160a01b03168252810191909152604001600020805460ff1916911515919091179055806200011481620002f8565b915050620000b2565b5050565b82805482825590600052602060002090810192821562000179579160200282015b828111156200017957825182546001600160a01b0319166001600160a01b0390911617825560209092019160019091019062000142565b50620001879291506200018b565b5090565b5b808211156200018757600081556001016200018c565b80516001600160a01b0381168114620001ba57600080fd5b919050565b634e487b7160e01b600052604160045260246000fd5b60008060008060808587031215620001ec57600080fd5b620001f785620001a2565b9350602062000208818701620001a2565b60408701519094506001600160401b03808211156200022657600080fd5b818801915088601f8301126200023b57600080fd5b815181811115620002505762000250620001bf565b8060051b604051601f19603f83011681018181108582111715620002785762000278620001bf565b60405291825284820192508381018501918b8311156200029757600080fd5b938501935b82851015620002c057620002b085620001a2565b845293850193928501926200029c565b809750505050505050620002d760608601620001a2565b905092959194509250565b634e487b7160e01b600052603260045260246000fd5b6000600182016200031957634e487b7160e01b600052601160045260246000fd5b5060010190565b61164f80620003306000396000f3fe6080604052600436106100915760003560e01c80639aa360ec116100595780639aa360ec1461013f578063b744cc2b1461017f578063c591aa981461019f578063da78b294146101d7578063f03906f5146101f957600080fd5b80630d61b5191461009657806323a25936146100ab57806328b84813146100dd5780635e2c8391146100ff57806365cb906d1461011f575b600080fd5b6100a96100a4366004610ee5565b610250565b005b3480156100b757600080fd5b50600454604080513081526001600160a01b039092166020830152015b60405180910390f35b3480156100e957600080fd5b506100f261031a565b6040516100d49190610f44565b34801561010b57600080fd5b506100a961011a3660046110aa565b6105e3565b34801561012b57600080fd5b506100a961013a3660046111c7565b610625565b34801561014b57600080fd5b5061016f61015a3660046112ec565b60016020526000908152604090205460ff1681565b60405190151581526020016100d4565b34801561018b57600080fd5b506100a961019a366004610ee5565b61078b565b3480156101ab57600080fd5b5061016f6101ba36600461130e565b600060208181529281526040808220909352908152205460ff1681565b3480156101e357600080fd5b506101ec6107ea565b6040516100d49190611338565b34801561020557600080fd5b50600254600354600454610226926001600160a01b03908116928116911683565b604080516001600160a01b03948516815292841660208401529216918101919091526060016100d4565b600061025b8261084f565b600381015490915060009060601b6bffffffffffffffffffffffff1916600280549084015460405163fa31de0160e01b81529293506000926001600160a01b039092169163fa31de01916102c591600160a01b90910461ffff1690869060088901906004016113bf565b6020604051808303816000875af11580156102e4573d6000803e3d6000fd5b505050506040513d601f19601f82011682018060405250810190610308919061145d565b90506103148184610a73565b50505050565b60606002600401805480602002602001604051908101604052809291908181526020016000905b828210156105da57838290600052602060002090600d0201604051806101e00160405290816000820154815260200160018201805461037f90611385565b80601f01602080910402602001604051908101604052809291908181526020018280546103ab90611385565b80156103f85780601f106103cd576101008083540402835291602001916103f8565b820191906000526020600020905b8154815290600101906020018083116103db57829003601f168201915b505050918352505060028201546001600160a01b038082166020840152600160a01b90910461ffff1660408301526003830154811660608301526004830154166080820152600582015460a0820152600682015460c0820152600782015460e08201526008820180546101009092019161047190611385565b80601f016020809104026020016040519081016040528092919081815260200182805461049d90611385565b80156104ea5780601f106104bf576101008083540402835291602001916104ea565b820191906000526020600020905b8154815290600101906020018083116104cd57829003601f168201915b505050918352505060098201546001600160a01b03166020820152600a8201805460409092019161051a90611385565b80601f016020809104026020016040519081016040528092919081815260200182805461054690611385565b80156105935780601f1061056857610100808354040283529160200191610593565b820191906000526020600020905b81548152906001019060200180831161057657829003601f168201915b5050509183525050600b82015460ff80821615156020808501919091526101009092041615156040830152600c909201546060909101529082526001929092019101610341565b50505050905090565b6000600260040183815481106105fb576105fb611476565b90600052602060002090600d02019050610616818484610afb565b6106208184610b53565b505050565b3360009081526001602052604090205460ff166106955760405162461bcd60e51b8152602060048201526024808201527f4f6e6c7920636f756e63696c732063616e2063616c6c20746869732066756e636044820152633a34b7b760e11b60648201526084015b60405180910390fd5b8060018160c0015161ffff1610156106e55760405162461bcd60e51b8152602060048201526013602482015272566f7465206e656564656420746f6f206c6f7760681b604482015260640161068c565b60648160c0015161ffff1611156107355760405162461bcd60e51b81526020600482015260146024820152730acdee8ca40dccacac8cac840e8dede40d0d2ced60631b604482015260640161068c565b428160a00151101561077e5760405162461bcd60e51b8152602060048201526012602482015271111d5c985d1a5bdb881d1bdbc81cda1bdc9d60721b604482015260640161068c565b61078782610c6c565b5050565b60048054604051635e5ba8d760e01b81529182018390526001600160a01b031690635e5ba8d790602401600060405180830381600087803b1580156107cf57600080fd5b505af11580156107e3573d6000803e3d6000fd5b5050505050565b6060600260030180548060200260200160405190810160405280929190818152602001828054801561084557602002820191906000526020600020905b81546001600160a01b03168152600190910190602001808311610827575b5050505050905090565b6000806002600401838154811061086857610868611476565b60009182526020909120600d90910201600b81015490915060ff16156108a05760405162461bcd60e51b815260040161068c9061148c565b600b810154610100900460ff16156108fa5760405162461bcd60e51b815260206004820152601b60248201527f50726f706f73616c2068617320616c726561647920656e6465642e0000000000604482015260640161068c565b8060060154816007015410156109465760405162461bcd60e51b81526020600482015260116024820152702737ba1032b737bab3b4103b37ba32b99760791b604482015260640161068c565b4281600c0154111561099a5760405162461bcd60e51b815260206004820152601760248201527f50726f706f73616c20686173206e6f7420656e6465642e000000000000000000604482015260640161068c565b60028101546001600160a01b03163314610a015760405162461bcd60e51b815260206004820152602260248201527f4f6e6c7920436f756e63696c2063616e20657865637574652070726f706f7361604482015261361760f11b606482015260840161068c565b60098101546001600160a01b0316610a5b5760405162461bcd60e51b815260206004820181905260248201527f4e6f204e4654206c6f636b656420666f7220746869732070726f706f73616c2e604482015260640161068c565b600b8101805461ffff19166101011790555b92915050565b6003546002820154604051630237e58360e31b815260048101859052600160a01b90910461ffff16602482015261271060448201523360648201526001600160a01b03909116906311bf2c189034906084016000604051808303818588803b158015610ade57600080fd5b505af1158015610af2573d6000803e3d6000fd5b50505050505050565b6004805460098501546040516328aa15a160e11b81529283018590526001600160a01b0390811660248401526044830184905216906351542b4290606401600060405180830381600087803b158015610ade57600080fd5b600b820154610100900460ff1615610b9f5760405162461bcd60e51b815260206004820152600f60248201526e2b37ba32903430b99032b73232b21760891b604482015260640161068c565b600b82015460ff1615610bc45760405162461bcd60e51b815260040161068c9061148c565b3360009081526020818152604080832084845290915290205460ff1615610c2d5760405162461bcd60e51b815260206004820152601760248201527f596f75206861766520616c726561647920766f7465642e000000000000000000604482015260640161068c565b6001826007016000828254610c4291906114e5565b90915550503360009081526020818152604080832093835292905220805460ff1916600117905550565b604080516101e0810182526006805480835284516020808501918252338587015286015161ffff908116606080870191909152958701516001600160a01b0390811660808088019190915296880151811660a0808801919091529688015160c08088019190915288015190911660e0808701919091526000610100808801829052610120808b0151908901529189015190921661014087015287015161016086015261018085018190526101a08501819052948601516101c0850152600182018355919093528151600d9093027ff652222313e28459528d920b65115c16c04f3efc82aaedc97be59f3f377c0d3f810193845590519192917ff652222313e28459528d920b65115c16c04f3efc82aaedc97be59f3f377c0d4090910190610d939082611546565b506040820151600282018054606085015161ffff16600160a01b026001600160b01b03199091166001600160a01b039384161717905560808301516003830180549183166001600160a01b031992831617905560a084015160048401805491909316911617905560c0820151600582015560e0820151600682015561010082015160078201556101208201516008820190610e2e9082611546565b506101408201516009820180546001600160a01b0319166001600160a01b03909216919091179055610160820151600a820190610e6b9082611546565b50610180820151600b820180546101a085015115156101000261ff00199315159390931661ffff19909116179190911790556101c090910151600c90910155600654610eb990600190611606565b6040517fc2c021f5d73c63c481d336fbbafec58f694fc45095f00b02d2deb8cca59afe0790600090a250565b600060208284031215610ef757600080fd5b5035919050565b6000815180845260005b81811015610f2457602081850181015186830182015201610f08565b506000602082860101526020601f19601f83011685010191505092915050565b60006020808301818452808551808352604092508286019150828160051b87010184880160005b8381101561109c57603f1989840301855281516101e08151855288820151818a870152610f9a82870182610efe565b91505087820151610fb5898701826001600160a01b03169052565b5060608281015161ffff16908601526080808301516001600160a01b039081169187019190915260a0808401519091169086015260c0808301519086015260e08083015190860152610100808301519086015261012080830151868303828801526110208382610efe565b925050506101408083015161103f828801826001600160a01b03169052565b505061016080830151868303828801526110598382610efe565b92505050610180808301516110718288018215159052565b50506101a0828101511515908601526101c09182015191909401529386019390860190600101610f6b565b509098975050505050505050565b600080604083850312156110bd57600080fd5b50508035926020909101359150565b634e487b7160e01b600052604160045260246000fd5b604051610140810167ffffffffffffffff81118282101715611106576111066110cc565b60405290565b600082601f83011261111d57600080fd5b813567ffffffffffffffff80821115611138576111386110cc565b604051601f8301601f19908116603f01168101908282118183101715611160576111606110cc565b8160405283815286602085880101111561117957600080fd5b836020870160208301376000602085830101528094505050505092915050565b803561ffff811681146111ab57600080fd5b919050565b80356001600160a01b03811681146111ab57600080fd5b6000602082840312156111d957600080fd5b813567ffffffffffffffff808211156111f157600080fd5b90830190610140828603121561120657600080fd5b61120e6110e2565b82358281111561121d57600080fd5b6112298782860161110c565b82525061123860208401611199565b6020820152611249604084016111b0565b604082015261125a606084016111b0565b60608201526080830135608082015260a083013560a082015261127f60c08401611199565b60c082015261129060e084016111b0565b60e082015261010080840135838111156112a957600080fd5b6112b58882870161110c565b82840152505061012080840135838111156112cf57600080fd5b6112db8882870161110c565b918301919091525095945050505050565b6000602082840312156112fe57600080fd5b611307826111b0565b9392505050565b6000806040838503121561132157600080fd5b61132a836111b0565b946020939093013593505050565b6020808252825182820181905260009190848201906040850190845b818110156113795783516001600160a01b031683529284019291840191600101611354565b50909695505050505050565b600181811c9082168061139957607f821691505b6020821081036113b957634e487b7160e01b600052602260045260246000fd5b50919050565b61ffff8416815260006020848184015260606040840152600084546113e381611385565b8060608701526080600180841660008114611405576001811461141f5761144d565b60ff1985168984015283151560051b89018301955061144d565b896000528660002060005b858110156114455781548b820186015290830190880161142a565b8a0184019650505b50939a9950505050505050505050565b60006020828403121561146f57600080fd5b5051919050565b634e487b7160e01b600052603260045260246000fd5b60208082526023908201527f50726f706f73616c2068617320616c7265616479206265656e2065786563757460408201526232b21760e91b606082015260800190565b634e487b7160e01b600052601160045260246000fd5b80820180821115610a6d57610a6d6114cf565b601f82111561062057600081815260208120601f850160051c8101602086101561151f5750805b601f850160051c820191505b8181101561153e5782815560010161152b565b505050505050565b815167ffffffffffffffff811115611560576115606110cc565b6115748161156e8454611385565b846114f8565b602080601f8311600181146115a957600084156115915750858301515b600019600386901b1c1916600185901b17855561153e565b600085815260208120601f198616915b828110156115d8578886015182559484019460019091019084016115b9565b50858210156115f65787850151600019600388901b60f8161c191681555b5050505050600190811b01905550565b81810381811115610a6d57610a6d6114cf56fea2646970667358221220584dd1bf82f565233a0c6ec7477c882b1593525026f24e825258a510f145f4b364736f6c63430008140033",
    "linkReferences": {}
  },
  "methodIdentifiers": {
    "createProposal((string,uint16,address,address,uint256,uint256,uint16,address,string,bytes))": "65cb906d",
    "executeProposal(uint256)": "0d61b519",
    "getGovernanceAndNFTLockAddresses()": "23a25936",
    "isCouncil(address)": "9aa360ec",
    "releaseLockedNFT(uint256)": "b744cc2b",
    "resources()": "f03906f5",
    "returnAllCouncil()": "da78b294",
    "returnAllProposal()": "28b84813",
    "stakeAndVote(uint256,uint256)": "5e2c8391",
    "voted(address,uint256)": "c591aa98"
  },
  "id": 21
}