{
  "abi": [
    {
      "anonymous": false,
      "inputs": [
        {
          "indexed": false,
          "internalType": "address",
          "name": "governance",
          "type": "address"
        },
        {
          "indexed": false,
          "internalType": "string",
          "name": "name",
          "type": "string"
        }
      ],
      "name": "GovernanceCreated",
      "type": "event"
    },
    {
      "inputs": [
        {
          "internalType": "string",
          "name": "name",
          "type": "string"
        },
        {
          "internalType": "uint256",
          "name": "_minimumVotes",
          "type": "uint256"
        },
        {
          "internalType": "address",
          "name": "_mailboxAddress",
          "type": "address"
        },
        {
          "internalType": "address",
          "name": "_gasPaymaster",
          "type": "address"
        },
        {
          "internalType": "contract IERC20",
          "name": "_stakingToken",
          "type": "address"
        },
        {
          "internalType": "address[]",
          "name": "_council",
          "type": "address[]"
        }
      ],
      "name": "createGovernance",
      "outputs": [
        {
          "internalType": "contract Governance",
          "name": "",
          "type": "address"
        }
      ],
      "stateMutability": "nonpayable",
      "type": "function"
    },
    {
      "inputs": [
        {
          "internalType": "uint256",
          "name": "index",
          "type": "uint256"
        }
      ],
      "name": "getGovernance",
      "outputs": [
        {
          "internalType": "address",
          "name": "",
          "type": "address"
        },
        {
          "internalType": "string",
          "name": "",
          "type": "string"
        }
      ],
      "stateMutability": "view",
      "type": "function"
    },
    {
      "inputs": [],
      "name": "getGovernances",
      "outputs": [
        {
          "internalType": "address[]",
          "name": "",
          "type": "address[]"
        },
        {
          "internalType": "string[]",
          "name": "",
          "type": "string[]"
        }
      ],
      "stateMutability": "view",
      "type": "function"
    },
    {
      "inputs": [
        {
          "internalType": "address",
          "name": "",
          "type": "address"
        }
      ],
      "name": "governanceNames",
      "outputs": [
        {
          "internalType": "string",
          "name": "",
          "type": "string"
        }
      ],
      "stateMutability": "view",
      "type": "function"
    },
    {
      "inputs": [
        {
          "internalType": "uint256",
          "name": "",
          "type": "uint256"
        }
      ],
      "name": "governances",
      "outputs": [
        {
          "internalType": "contract Governance",
          "name": "",
          "type": "address"
        }
      ],
      "stateMutability": "view",
      "type": "function"
    }
  ],
  "bytecode": {
    "object": "0x608060405234801561001057600080fd5b506127ad806100206000396000f3fe60806040523480156200001157600080fd5b50600436106200005e5760003560e01c806329fac25d146200006357806360b21aaa14620000975780636f442a9814620000bd578063a622d45314620000d7578063f05201e914620000fe575b600080fd5b6200007a62000074366004620006fb565b62000115565b6040516001600160a01b0390911681526020015b60405180910390f35b620000ae620000a8366004620007ff565b62000203565b6040516200008e91906200086e565b620000c7620002a5565b6040516200008e929190620008c9565b620000ee620000e836600462000941565b620004d6565b6040516200008e9291906200095b565b6200007a6200010f36600462000941565b620005b9565b60008086868686866040516200012b90620005e4565b6200013b95949392919062000989565b604051809103906000f08015801562000158573d6000803e3d6000fd5b5060008054600180820183557f290decd9548b62a8d60345a988386fc84ba6bc95484008f6362f93160ef3e56390910180546001600160a01b0319166001600160a01b038516908117909155825260205260409020909150620001bc898262000a54565b507f7043fc0efcff91f2c9a64645f52754549a68385ded8fc1def580bb6a1194b1668189604051620001f09291906200095b565b60405180910390a1979650505050505050565b600160205260009081526040902080546200021e90620009c5565b80601f01602080910402602001604051908101604052809291908181526020018280546200024c90620009c5565b80156200029d5780601f1062000271576101008083540402835291602001916200029d565b820191906000526020600020905b8154815290600101906020018083116200027f57829003601f168201915b505050505081565b600080546060918291908167ffffffffffffffff811115620002cb57620002cb620005f2565b604051908082528060200260200182016040528015620002f5578160200160208202803683370190505b50905060008267ffffffffffffffff811115620003165762000316620005f2565b6040519080825280602002602001820160405280156200034b57816020015b6060815260200190600190039081620003355790505b50905060005b83811015620004cb576000818154811062000370576200037062000b21565b9060005260206000200160009054906101000a90046001600160a01b0316838281518110620003a357620003a362000b21565b60200260200101906001600160a01b031690816001600160a01b03168152505060016000848381518110620003dc57620003dc62000b21565b60200260200101516001600160a01b03166001600160a01b0316815260200190815260200160002080546200041190620009c5565b80601f01602080910402602001604051908101604052809291908181526020018280546200043f90620009c5565b8015620004905780601f10620004645761010080835404028352916020019162000490565b820191906000526020600020905b8154815290600101906020018083116200047257829003601f168201915b5050505050828281518110620004aa57620004aa62000b21565b60200260200101819052508080620004c29062000b37565b91505062000351565b509094909350915050565b600060606000808481548110620004f157620004f162000b21565b60009182526020808320909101546001600160a01b0316808352600190915260409091208054919250829181906200052990620009c5565b80601f01602080910402602001604051908101604052809291908181526020018280546200055790620009c5565b8015620005a85780601f106200057c57610100808354040283529160200191620005a8565b820191906000526020600020905b8154815290600101906020018083116200058a57829003601f168201915b505050505090509250925050915091565b60008181548110620005ca57600080fd5b6000918252602090912001546001600160a01b0316905081565b611c188062000b6083390190565b634e487b7160e01b600052604160045260246000fd5b604051601f8201601f1916810167ffffffffffffffff81118282101715620006345762000634620005f2565b604052919050565b6001600160a01b03811681146200065257600080fd5b50565b803562000662816200063c565b919050565b600082601f8301126200067957600080fd5b8135602067ffffffffffffffff821115620006985762000698620005f2565b8160051b620006a982820162000608565b9283528481018201928281019087851115620006c457600080fd5b83870192505b84831015620006f0578235620006e0816200063c565b82529183019190830190620006ca565b979650505050505050565b60008060008060008060c087890312156200071557600080fd5b863567ffffffffffffffff808211156200072e57600080fd5b818901915089601f8301126200074357600080fd5b81356020828211156200075a576200075a620005f2565b6200076e601f8301601f1916820162000608565b8281528c828487010111156200078357600080fd5b828286018383013760009281018201929092529098508901359650620007ac60408a0162000655565b9550620007bc60608a0162000655565b9450620007cc60808a0162000655565b935060a0890135915080821115620007e357600080fd5b50620007f289828a0162000667565b9150509295509295509295565b6000602082840312156200081257600080fd5b81356200081f816200063c565b9392505050565b6000815180845260005b818110156200084e5760208185018101518683018201520162000830565b506000602082860101526020601f19601f83011685010191505092915050565b6020815260006200081f602083018462000826565b600081518084526020808501945080840160005b83811015620008be5781516001600160a01b03168752958201959082019060010162000897565b509495945050505050565b604081526000620008de604083018562000883565b6020838203818501528185518084528284019150828160051b85010183880160005b838110156200093257601f198784030185526200091f83835162000826565b9486019492509085019060010162000900565b50909998505050505050505050565b6000602082840312156200095457600080fd5b5035919050565b6001600160a01b0383168152604060208201819052600090620009819083018462000826565b949350505050565b8581526001600160a01b03858116602083015284811660408301528316606082015260a060808201819052600090620006f09083018462000883565b600181811c90821680620009da57607f821691505b602082108103620009fb57634e487b7160e01b600052602260045260246000fd5b50919050565b601f82111562000a4f57600081815260208120601f850160051c8101602086101562000a2a5750805b601f850160051c820191505b8181101562000a4b5782815560010162000a36565b5050505b505050565b815167ffffffffffffffff81111562000a715762000a71620005f2565b62000a898162000a828454620009c5565b8462000a01565b602080601f83116001811462000ac1576000841562000aa85750858301515b600019600386901b1c1916600185901b17855562000a4b565b600085815260208120601f198616915b8281101562000af25788860151825594840194600190910190840162000ad1565b508582101562000b115787850151600019600388901b60f8161c191681555b5050505050600190811b01905550565b634e487b7160e01b600052603260045260246000fd5b60006001820162000b5857634e487b7160e01b600052601160045260246000fd5b506001019056fe61010060405268056bc75e2d63100000600555620186a06006553480156200002657600080fd5b5060405162001c1838038062001c188339810160408190526200004991620001ba565b60808590526001600160a01b0380841660a05284811660c052821660e05280516200007c906007906020840190620000f8565b5060005b8151811015620000ec57600160036000848481518110620000a557620000a5620002d9565b6020908102919091018101516001600160a01b03168252810191909152604001600020805460ff191691151591909117905580620000e381620002ef565b91505062000080565b50505050505062000317565b82805482825590600052602060002090810192821562000150579160200282015b828111156200015057825182546001600160a01b0319166001600160a01b0390911617825560209092019160019091019062000119565b506200015e92915062000162565b5090565b5b808211156200015e576000815560010162000163565b6001600160a01b03811681146200018f57600080fd5b50565b80516200019f8162000179565b919050565b634e487b7160e01b600052604160045260246000fd5b600080600080600060a08688031215620001d357600080fd5b85519450602080870151620001e88162000179565b6040880151909550620001fb8162000179565b60608801519094506200020e8162000179565b60808801519093506001600160401b03808211156200022c57600080fd5b818901915089601f8301126200024157600080fd5b815181811115620002565762000256620001a4565b8060051b604051601f19603f830116810181811085821117156200027e576200027e620001a4565b60405291825284820192508381018501918c8311156200029d57600080fd5b938501935b82851015620002c657620002b68562000192565b84529385019392850192620002a2565b8096505050505050509295509295909350565b634e487b7160e01b600052603260045260246000fd5b6000600182016200031057634e487b7160e01b600052601160045260246000fd5b5060010190565b60805160a05160c05160e0516118ab6200036d600039600081816101bc0152818161053501526107d801526000818161020801526110bb0152600081816103730152610ff401526000610aa301526118ab6000f3fe6080604052600436106100fe5760003560e01c8063988efdc711610095578063cbf1304d11610064578063cbf1304d1461032c578063d5438eae14610361578063da78b29414610395578063f4de6da6146103b7578063fe0d94c1146103d757600080fd5b8063988efdc71461027b5780639aa360ec1461029b578063aa285742146102db578063c591aa98146102f157600080fd5b806372f702f3116100d157806372f702f3146101aa578063805ef6e8146101f6578063817b1cd21461022a5780638da7ad231461024e57600080fd5b8063013cf08b146101035780630e67ffb41461014657806325d5971f1461016857806328b8481314610188575b600080fd5b34801561010f57600080fd5b5061012361011e366004611127565b6103ea565b60405161013d9e9d9c9b9a99989796959493929190611186565b60405180910390f35b34801561015257600080fd5b50610166610161366004611127565b61050f565b005b34801561017457600080fd5b50610166610183366004611127565b610739565b34801561019457600080fd5b5061019d61088e565b60405161013d9190611224565b3480156101b657600080fd5b506101de7f000000000000000000000000000000000000000000000000000000000000000081565b6040516001600160a01b03909116815260200161013d565b34801561020257600080fd5b506101de7f000000000000000000000000000000000000000000000000000000000000000081565b34801561023657600080fd5b5061024060045481565b60405190815260200161013d565b34801561025a57600080fd5b5061024061026936600461135b565b60026020526000908152604090205481565b34801561028757600080fd5b5061016661029636600461145c565b610a35565b3480156102a757600080fd5b506102cb6102b636600461135b565b60036020526000908152604090205460ff1681565b604051901515815260200161013d565b3480156102e757600080fd5b5061024060055481565b3480156102fd57600080fd5b506102cb61030c366004611541565b600160209081526000928352604080842090915290825290205460ff1681565b34801561033857600080fd5b50610240610347366004611541565b600060208181529281526040808220909352908152205481565b34801561036d57600080fd5b506101de7f000000000000000000000000000000000000000000000000000000000000000081565b3480156103a157600080fd5b506103aa610e76565b60405161013d919061156b565b3480156103c357600080fd5b506101de6103d2366004611127565b610ed8565b6101666103e5366004611127565b610f02565b600881815481106103fa57600080fd5b60009182526020909120600c9091020180546001820154600283015460038401546004850154600586015460068701546007880154600889015460098a018054999b506001600160a01b03808a169b600160a01b909a0461ffff169a9881169997811698961696949593949293919291610473906115b8565b80601f016020809104026020016040519081016040528092919081815260200182805461049f906115b8565b80156104ec5780601f106104c1576101008083540402835291602001916104ec565b820191906000526020600020905b8154815290600101906020018083116104cf57829003601f168201915b50505050600a830154600b90930154919260ff808216936101009092041691508e565b6005546040516323b872dd60e01b815233600482015230602482015260448101919091527f00000000000000000000000000000000000000000000000000000000000000006001600160a01b0316906323b872dd906064016020604051808303816000875af1158015610586573d6000803e3d6000fd5b505050506040513d601f19601f820116820180604052508101906105aa91906115f2565b6105ec5760405162461bcd60e51b815260206004820152600e60248201526d14dd185ada5b99c819985a5b195960921b60448201526064015b60405180910390fd5b600554336000908152600260205260408120805490919061060e90849061162a565b9250508190555060006008828154811061062a5761062a611643565b90600052602060002090600c0201905080600a0160019054906101000a900460ff161561068b5760405162461bcd60e51b815260206004820152600f60248201526e2b37ba32903430b99032b73232b21760891b60448201526064016105e3565b600a81015460ff16156106b05760405162461bcd60e51b81526004016105e390611659565b33600090815260016020908152604080832085845290915290205460ff161561071b5760405162461bcd60e51b815260206004820152601760248201527f596f75206861766520616c726561647920766f7465642e00000000000000000060448201526064016105e3565b6001816008016000828254610730919061162a565b90915550505050565b336000908152600260205260409020548111156107985760405162461bcd60e51b815260206004820152601a60248201527f496e73756666696369656e74207374616b656420616d6f756e7400000000000060448201526064016105e3565b33600090815260026020526040812080548392906107b790849061169c565b909155505060405163a9059cbb60e01b8152336004820152602481018290527f00000000000000000000000000000000000000000000000000000000000000006001600160a01b03169063a9059cbb906044016020604051808303816000875af1158015610829573d6000803e3d6000fd5b505050506040513d601f19601f8201168201806040525081019061084d91906115f2565b61088b5760405162461bcd60e51b815260206004820152600f60248201526e15da5d1a191c985dc819985a5b1959608a1b60448201526064016105e3565b50565b60606008805480602002602001604051908101604052809291908181526020016000905b82821015610a2c576000848152602090819020604080516101c081018252600c86029092018054835260018101546001600160a01b0380821695850195909552600160a01b900461ffff1691830191909152600281015483166060830152600381015483166080830152600481015490921660a0820152600582015460c0820152600682015460e0820152600782015461010082015260088201546101208201526009820180549192916101408401919061096c906115b8565b80601f0160208091040260200160405190810160405280929190818152602001828054610998906115b8565b80156109e55780601f106109ba576101008083540402835291602001916109e5565b820191906000526020600020905b8154815290600101906020018083116109c857829003601f168201915b5050509183525050600a82015460ff80821615156020808501919091526101009092041615156040830152600b9092015460609091015290825260019290920191016108b2565b50505050905090565b3360009081526003602052604090205460ff1615610aa15760405162461bcd60e51b8152602060048201526024808201527f4f6e6c7920636f756e63696c732063616e2063616c6c20746869732066756e636044820152633a34b7b760e11b60648201526084016105e3565b7f00000000000000000000000000000000000000000000000000000000000000008160e0015161ffff161015610b0f5760405162461bcd60e51b8152602060048201526013602482015272566f7465206e656564656420746f6f206c6f7760681b60448201526064016105e3565b60648160e0015161ffff161115610b5f5760405162461bcd60e51b81526020600482015260146024820152730acdee8ca40dccacac8cac840e8dede40d0d2ced60631b60448201526064016105e3565b6102588160c001511015610baa5760405162461bcd60e51b8152602060048201526012602482015271111d5c985d1a5bdb881d1bdbc81cda1bdc9d60721b60448201526064016105e3565b62278d008160c001511115610bf55760405162461bcd60e51b81526020600482015260116024820152704475726174696f6e20746f6f206c6f6e6760781b60448201526064016105e3565b6008604051806101c001604052806008805490508152602001336001600160a01b03168152602001836000015161ffff16815260200183602001516001600160a01b0316815260200183604001516001600160a01b0316815260200183606001516001600160a01b03168152602001836080015181526020018360a0015181526020018360e0015161ffff1681526020016000815260200183610100015181526020016000151581526020016000151581526020018360c0015181525090806001815401808255809150506001900390600052602060002090600c02016000909190919091506000820151816000015560208201518160010160006101000a8154816001600160a01b0302191690836001600160a01b0316021790555060408201518160010160146101000a81548161ffff021916908361ffff16021790555060608201518160020160006101000a8154816001600160a01b0302191690836001600160a01b0316021790555060808201518160030160006101000a8154816001600160a01b0302191690836001600160a01b0316021790555060a08201518160040160006101000a8154816001600160a01b0302191690836001600160a01b0316021790555060c0820151816005015560e0820151816006015561010082015181600701556101208201518160080155610140820151816009019081610dfc91906116fe565b50610160820151600a8201805461018085015115156101000261ff00199315159390931661ffff19909116179190911790556101a090910151600b90910155600854610e4a9060019061169c565b6040517fc2c021f5d73c63c481d336fbbafec58f694fc45095f00b02d2deb8cca59afe0790600090a250565b60606007805480602002602001604051908101604052809291908181526020018280548015610ece57602002820191906000526020600020905b81546001600160a01b03168152600190910190602001808311610eb0575b5050505050905090565b60078181548110610ee857600080fd5b6000918252602090912001546001600160a01b0316905081565b600060088281548110610f1757610f17611643565b60009182526020909120600c90910201600a81015490915060ff1615610f4f5760405162461bcd60e51b81526004016105e390611659565b600a810154610100900460ff1615610fa95760405162461bcd60e51b815260206004820152601b60248201527f50726f706f73616c2068617320616c726561647920656e6465642e000000000060448201526064016105e3565b600a8101805461ffff19166101011790556002810154600182015460405163fa31de0160e01b815260609290921b6bffffffffffffffffffffffff1916916000916001600160a01b037f0000000000000000000000000000000000000000000000000000000000000000169163fa31de019161103b91600160a01b90910461ffff1690869060098901906004016117be565b6020604051808303816000875af115801561105a573d6000803e3d6000fd5b505050506040513d601f19601f8201168201806040525081019061107e919061185c565b6001840154600654604051630237e58360e31b815260048101849052600160a01b90920461ffff16602483015260448201523360648201529091507f00000000000000000000000000000000000000000000000000000000000000006001600160a01b0316906311bf2c189034906084016000604051808303818588803b15801561110857600080fd5b505af115801561111c573d6000803e3d6000fd5b505050505050505050565b60006020828403121561113957600080fd5b5035919050565b6000815180845260005b818110156111665760208185018101518683018201520161114a565b506000602082860101526020601f19601f83011685010191505092915050565b8e81526001600160a01b038e8116602083015261ffff8e1660408301528c1660608201526001600160a01b038b1660808201526001600160a01b038a1660a08201528860c08201528760e082015286610100820152856101208201526101c061014082015260006111fb6101c0830187611140565b941515610160830152509115156101808301526101a0909101529b9a5050505050505050505050565b60006020808301818452808551808352604092508286019150828160051b87010184880160005b8381101561133157603f19898403018552815180518452878101516001600160a01b03908116898601528782015161ffff168886015260608083015182169086015260808083015182169086015260a0808301519091169085015260c0808201519085015260e0808201519085015261010080820151908501526101208082015190850152610140808201516101c082870181905291906112ee83880182611140565b92505050610160808301516113068288018215159052565b5050610180828101511515908601526101a0918201519190940152938601939086019060010161124b565b509098975050505050505050565b80356001600160a01b038116811461135657600080fd5b919050565b60006020828403121561136d57600080fd5b6113768261133f565b9392505050565b634e487b7160e01b600052604160045260246000fd5b604051610120810167ffffffffffffffff811182821017156113b7576113b761137d565b60405290565b803561ffff8116811461135657600080fd5b600082601f8301126113e057600080fd5b813567ffffffffffffffff808211156113fb576113fb61137d565b604051601f8301601f19908116603f011681019082821181831017156114235761142361137d565b8160405283815286602085880101111561143c57600080fd5b836020870160208301376000602085830101528094505050505092915050565b60006020828403121561146e57600080fd5b813567ffffffffffffffff8082111561148657600080fd5b90830190610120828603121561149b57600080fd5b6114a3611393565b6114ac836113bd565b81526114ba6020840161133f565b60208201526114cb6040840161133f565b60408201526114dc6060840161133f565b60608201526080830135608082015260a083013560a082015260c083013560c082015261150b60e084016113bd565b60e0820152610100808401358381111561152457600080fd5b611530888287016113cf565b918301919091525095945050505050565b6000806040838503121561155457600080fd5b61155d8361133f565b946020939093013593505050565b6020808252825182820181905260009190848201906040850190845b818110156115ac5783516001600160a01b031683529284019291840191600101611587565b50909695505050505050565b600181811c908216806115cc57607f821691505b6020821081036115ec57634e487b7160e01b600052602260045260246000fd5b50919050565b60006020828403121561160457600080fd5b8151801515811461137657600080fd5b634e487b7160e01b600052601160045260246000fd5b8082018082111561163d5761163d611614565b92915050565b634e487b7160e01b600052603260045260246000fd5b60208082526023908201527f50726f706f73616c2068617320616c7265616479206265656e2065786563757460408201526232b21760e91b606082015260800190565b8181038181111561163d5761163d611614565b601f8211156116f957600081815260208120601f850160051c810160208610156116d65750805b601f850160051c820191505b818110156116f5578281556001016116e2565b5050505b505050565b815167ffffffffffffffff8111156117185761171861137d565b61172c8161172684546115b8565b846116af565b602080601f83116001811461176157600084156117495750858301515b600019600386901b1c1916600185901b1785556116f5565b600085815260208120601f198616915b8281101561179057888601518255948401946001909101908401611771565b50858210156117ae5787850151600019600388901b60f8161c191681555b5050505050600190811b01905550565b61ffff8416815260006020848184015260606040840152600084546117e2816115b8565b8060608701526080600180841660008114611804576001811461181e5761184c565b60ff1985168984015283151560051b89018301955061184c565b896000528660002060005b858110156118445781548b8201860152908301908801611829565b8a0184019650505b50939a9950505050505050505050565b60006020828403121561186e57600080fd5b505191905056fea264697066735822122065106e495d6bbfedd5e036c955e4195b8feb389d1e0133347f85dc1309acfee664736f6c63430008140033a26469706673582212207b38ba468fd63f950802fe5045428226bc4859fee90de5c2ead661d625d4825464736f6c63430008140033",
    "linkReferences": {}
  },
  "methodIdentifiers": {
    "createGovernance(string,uint256,address,address,address,address[])": "29fac25d",
    "getGovernance(uint256)": "a622d453",
    "getGovernances()": "6f442a98",
    "governanceNames(address)": "60b21aaa",
    "governances(uint256)": "f05201e9"
  },
  "id": 27
}