{
  "abi": [
    {
      "inputs": [
        {
          "internalType": "address",
          "name": "_mailboxAddress",
          "type": "address"
        },
        {
          "internalType": "address",
          "name": "_paymaster",
          "type": "address"
        },
        {
          "internalType": "address[]",
          "name": "_council",
          "type": "address[]"
        },
        {
          "internalType": "address",
          "name": "_nftLock",
          "type": "address"
        },
        {
          "internalType": "address",
          "name": "_stakingContract",
          "type": "address"
        }
      ],
      "stateMutability": "nonpayable",
      "type": "constructor"
    },
    {
      "anonymous": false,
      "inputs": [
        {
          "indexed": true,
          "internalType": "uint256",
          "name": "id",
          "type": "uint256"
        }
      ],
      "name": "ProposalCreated",
      "type": "event"
    },
    {
      "anonymous": false,
      "inputs": [
        {
          "indexed": true,
          "internalType": "uint256",
          "name": "proposalId",
          "type": "uint256"
        }
      ],
      "name": "ProposalExecuted",
      "type": "event"
    },
    {
      "anonymous": false,
      "inputs": [
        {
          "indexed": true,
          "internalType": "uint256",
          "name": "proposalId",
          "type": "uint256"
        },
        {
          "indexed": true,
          "internalType": "address",
          "name": "voter",
          "type": "address"
        },
        {
          "indexed": false,
          "internalType": "bool",
          "name": "support",
          "type": "bool"
        }
      ],
      "name": "VoteCasted",
      "type": "event"
    },
    {
      "inputs": [
        {
          "components": [
            {
              "internalType": "string",
              "name": "description",
              "type": "string"
            },
            {
              "internalType": "uint16",
              "name": "targetChain",
              "type": "uint16"
            },
            {
              "internalType": "address",
              "name": "targetAddress",
              "type": "address"
            },
            {
              "internalType": "address",
              "name": "tokenAddressSource",
              "type": "address"
            },
            {
              "internalType": "uint256",
              "name": "sourceValue",
              "type": "uint256"
            },
            {
              "internalType": "uint256",
              "name": "duration",
              "type": "uint256"
            },
            {
              "internalType": "uint16",
              "name": "voteNeeded",
              "type": "uint16"
            },
            {
              "internalType": "address",
              "name": "nftAddress",
              "type": "address"
            },
            {
              "internalType": "string",
              "name": "groupId",
              "type": "string"
            },
            {
              "internalType": "bytes",
              "name": "messageBody",
              "type": "bytes"
            }
          ],
          "internalType": "struct Governance.ProposalInput",
          "name": "input",
          "type": "tuple"
        }
      ],
      "name": "createProposal",
      "outputs": [],
      "stateMutability": "nonpayable",
      "type": "function"
    },
    {
      "inputs": [
        {
          "internalType": "uint256",
          "name": "proposalId",
          "type": "uint256"
        }
      ],
      "name": "executeProposal",
      "outputs": [],
      "stateMutability": "payable",
      "type": "function"
    },
    {
      "inputs": [
        {
          "internalType": "address",
          "name": "",
          "type": "address"
        }
      ],
      "name": "isCouncil",
      "outputs": [
        {
          "internalType": "bool",
          "name": "",
          "type": "bool"
        }
      ],
      "stateMutability": "view",
      "type": "function"
    },
    {
      "inputs": [
        {
          "internalType": "uint256",
          "name": "proposalId",
          "type": "uint256"
        }
      ],
      "name": "releaseLockedNFT",
      "outputs": [],
      "stateMutability": "nonpayable",
      "type": "function"
    },
    {
      "inputs": [],
      "name": "resources",
      "outputs": [
        {
          "internalType": "contract IMailbox",
          "name": "mailbox",
          "type": "address"
        },
        {
          "internalType": "contract IInterchainGasPaymaster",
          "name": "paymaster",
          "type": "address"
        },
        {
          "internalType": "contract NFTLock",
          "name": "nftLock",
          "type": "address"
        },
        {
          "internalType": "contract ERC20Staking",
          "name": "stakingContract",
          "type": "address"
        }
      ],
      "stateMutability": "view",
      "type": "function"
    },
    {
      "inputs": [],
      "name": "returnAllCouncil",
      "outputs": [
        {
          "internalType": "address[]",
          "name": "",
          "type": "address[]"
        }
      ],
      "stateMutability": "view",
      "type": "function"
    },
    {
      "inputs": [],
      "name": "returnAllProposal",
      "outputs": [
        {
          "components": [
            {
              "internalType": "uint256",
              "name": "id",
              "type": "uint256"
            },
            {
              "internalType": "string",
              "name": "description",
              "type": "string"
            },
            {
              "internalType": "address",
              "name": "proposedAddress",
              "type": "address"
            },
            {
              "internalType": "uint16",
              "name": "targetChain",
              "type": "uint16"
            },
            {
              "internalType": "address",
              "name": "targetAddress",
              "type": "address"
            },
            {
              "internalType": "address",
              "name": "tokenAddressSource",
              "type": "address"
            },
            {
              "internalType": "uint256",
              "name": "sourceValue",
              "type": "uint256"
            },
            {
              "internalType": "uint256",
              "name": "votesNeeded",
              "type": "uint256"
            },
            {
              "internalType": "uint256",
              "name": "votes",
              "type": "uint256"
            },
            {
              "internalType": "bytes",
              "name": "messageBody",
              "type": "bytes"
            },
            {
              "internalType": "address",
              "name": "nftAddress",
              "type": "address"
            },
            {
              "internalType": "string",
              "name": "groupId",
              "type": "string"
            },
            {
              "internalType": "bool",
              "name": "executed",
              "type": "bool"
            },
            {
              "internalType": "bool",
              "name": "ended",
              "type": "bool"
            },
            {
              "internalType": "uint256",
              "name": "duration",
              "type": "uint256"
            }
          ],
          "internalType": "struct Governance.Proposal[]",
          "name": "",
          "type": "tuple[]"
        }
      ],
      "stateMutability": "view",
      "type": "function"
    },
    {
      "inputs": [
        {
          "internalType": "uint256",
          "name": "proposalId",
          "type": "uint256"
        },
        {
          "internalType": "uint256",
          "name": "stakeAmount",
          "type": "uint256"
        },
        {
          "internalType": "uint256",
          "name": "tokenId",
          "type": "uint256"
        }
      ],
      "name": "stakeAndVote",
      "outputs": [],
      "stateMutability": "nonpayable",
      "type": "function"
    },
    {
      "inputs": [
        {
          "internalType": "address",
          "name": "",
          "type": "address"
        },
        {
          "internalType": "uint256",
          "name": "",
          "type": "uint256"
        }
      ],
      "name": "voted",
      "outputs": [
        {
          "internalType": "bool",
          "name": "",
          "type": "bool"
        }
      ],
      "stateMutability": "view",
      "type": "function"
    }
  ],
  "bytecode": {
    "object": "0x60806040523480156200001157600080fd5b50604051620018c9380380620018c98339810160408190526200003491620001e1565b600280546001600160a01b038088166001600160a01b03199283161790925560038054928716929091169190911790556200006f83620000a5565b600480546001600160a01b039384166001600160a01b03199182161790915560058054929093169116179055506200033f915050565b8051620000ba9060069060208401906200012d565b5060005b815181101562000129576001806000848481518110620000e257620000e262000301565b6020908102919091018101516001600160a01b03168252810191909152604001600020805460ff191691151591909117905580620001208162000317565b915050620000be565b5050565b82805482825590600052602060002090810192821562000185579160200282015b828111156200018557825182546001600160a01b0319166001600160a01b039091161782556020909201916001909101906200014e565b506200019392915062000197565b5090565b5b8082111562000193576000815560010162000198565b80516001600160a01b0381168114620001c657600080fd5b919050565b634e487b7160e01b600052604160045260246000fd5b600080600080600060a08688031215620001fa57600080fd5b6200020586620001ae565b9450602062000216818801620001ae565b60408801519095506001600160401b03808211156200023457600080fd5b818901915089601f8301126200024957600080fd5b8151818111156200025e576200025e620001cb565b8060051b604051601f19603f83011681018181108582111715620002865762000286620001cb565b60405291825284820192508381018501918c831115620002a557600080fd5b938501935b82851015620002ce57620002be85620001ae565b84529385019392850192620002aa565b809850505050505050620002e560608701620001ae565b9150620002f560808701620001ae565b90509295509295909350565b634e487b7160e01b600052603260045260246000fd5b6000600182016200033857634e487b7160e01b600052601160045260246000fd5b5060010190565b61157a806200034f6000396000f3fe6080604052600436106100865760003560e01c80639aa360ec116100595780639aa360ec1461010b578063b744cc2b1461014b578063c591aa981461016b578063da78b294146101a3578063f03906f5146101c557600080fd5b80630d61b5191461008b5780630f07a76c146100a057806328b84813146100c057806365cb906d146100eb575b600080fd5b61009e610099366004610e05565b61022b565b005b3480156100ac57600080fd5b5061009e6100bb366004610e1e565b6102f5565b3480156100cc57600080fd5b506100d5610390565b6040516100e29190610e90565b60405180910390f35b3480156100f757600080fd5b5061009e6101063660046110f1565b610659565b34801561011757600080fd5b5061013b610126366004611216565b60016020526000908152604090205460ff1681565b60405190151581526020016100e2565b34801561015757600080fd5b5061009e610166366004610e05565b61080c565b34801561017757600080fd5b5061013b610186366004611238565b600060208181529281526040808220909352908152205460ff1681565b3480156101af57600080fd5b506101b861086b565b6040516100e29190611262565b3480156101d157600080fd5b506002546003546004546005546101f8936001600160a01b03908116938116928116911684565b604080516001600160a01b03958616815293851660208501529184169183019190915290911660608201526080016100e2565b6000610236826108d0565b600381015490915060009060601b6bffffffffffffffffffffffff1916600280549084015460405163fa31de0160e01b81529293506000926001600160a01b039092169163fa31de01916102a091600160a01b90910461ffff1690869060088901906004016112e9565b6020604051808303816000875af11580156102bf573d6000803e3d6000fd5b505050506040513d601f19601f820116820180604052508101906102e39190611387565b90506102ef8184610993565b50505050565b60055460405163534a7e1d60e11b8152600481018490526001600160a01b039091169063a694fc3a90602401600060405180830381600087803b15801561033b57600080fd5b505af115801561034f573d6000803e3d6000fd5b5050505060006002600501848154811061036b5761036b6113a0565b90600052602060002090600d02019050610386818584610a1b565b6102ef8185610a73565b60606002600501805480602002602001604051908101604052809291908181526020016000905b8282101561065057838290600052602060002090600d0201604051806101e0016040529081600082015481526020016001820180546103f5906112af565b80601f0160208091040260200160405190810160405280929190818152602001828054610421906112af565b801561046e5780601f106104435761010080835404028352916020019161046e565b820191906000526020600020905b81548152906001019060200180831161045157829003601f168201915b505050918352505060028201546001600160a01b038082166020840152600160a01b90910461ffff1660408301526003830154811660608301526004830154166080820152600582015460a0820152600682015460c0820152600782015460e0820152600882018054610100909201916104e7906112af565b80601f0160208091040260200160405190810160405280929190818152602001828054610513906112af565b80156105605780601f1061053557610100808354040283529160200191610560565b820191906000526020600020905b81548152906001019060200180831161054357829003601f168201915b505050918352505060098201546001600160a01b03166020820152600a82018054604090920191610590906112af565b80601f01602080910402602001604051908101604052809291908181526020018280546105bc906112af565b80156106095780601f106105de57610100808354040283529160200191610609565b820191906000526020600020905b8154815290600101906020018083116105ec57829003601f168201915b5050509183525050600b82015460ff80821615156020808501919091526101009092041615156040830152600c9092015460609091015290825260019290920191016103b7565b50505050905090565b3360009081526001602052604090205460ff166106c95760405162461bcd60e51b8152602060048201526024808201527f4f6e6c7920636f756e63696c732063616e2063616c6c20746869732066756e636044820152633a34b7b760e11b60648201526084015b60405180910390fd5b80600a8160c0015161ffff1610156107195760405162461bcd60e51b8152602060048201526013602482015272566f7465206e656564656420746f6f206c6f7760681b60448201526064016106c0565b60648160c0015161ffff1611156107695760405162461bcd60e51b81526020600482015260146024820152730acdee8ca40dccacac8cac840e8dede40d0d2ced60631b60448201526064016106c0565b6102588160a0015110156107b45760405162461bcd60e51b8152602060048201526012602482015271111d5c985d1a5bdb881d1bdbc81cda1bdc9d60721b60448201526064016106c0565b62278d008160a0015111156107ff5760405162461bcd60e51b81526020600482015260116024820152704475726174696f6e20746f6f206c6f6e6760781b60448201526064016106c0565b61080882610b8c565b5050565b60048054604051635e5ba8d760e01b81529182018390526001600160a01b031690635e5ba8d790602401600060405180830381600087803b15801561085057600080fd5b505af1158015610864573d6000803e3d6000fd5b5050505050565b606060026004018054806020026020016040519081016040528092919081815260200182805480156108c657602002820191906000526020600020905b81546001600160a01b031681526001909101906020018083116108a8575b5050505050905090565b600080600260050183815481106108e9576108e96113a0565b60009182526020909120600d90910201600b81015490915060ff16156109215760405162461bcd60e51b81526004016106c0906113b6565b600b810154610100900460ff161561097b5760405162461bcd60e51b815260206004820152601b60248201527f50726f706f73616c2068617320616c726561647920656e6465642e000000000060448201526064016106c0565b600b8101805461ffff19166101011790555b92915050565b6003546002820154604051630237e58360e31b815260048101859052600160a01b90910461ffff16602482015261271060448201523360648201526001600160a01b03909116906311bf2c189034906084016000604051808303818588803b1580156109fe57600080fd5b505af1158015610a12573d6000803e3d6000fd5b50505050505050565b6004805460098501546040516328aa15a160e11b81529283018590526001600160a01b0390811660248401526044830184905216906351542b4290606401600060405180830381600087803b1580156109fe57600080fd5b600b820154610100900460ff1615610abf5760405162461bcd60e51b815260206004820152600f60248201526e2b37ba32903430b99032b73232b21760891b60448201526064016106c0565b600b82015460ff1615610ae45760405162461bcd60e51b81526004016106c0906113b6565b3360009081526020818152604080832084845290915290205460ff1615610b4d5760405162461bcd60e51b815260206004820152601760248201527f596f75206861766520616c726561647920766f7465642e00000000000000000060448201526064016106c0565b6001826007016000828254610b62919061140f565b90915550503360009081526020818152604080832093835292905220805460ff1916600117905550565b604080516101e0810182526007805480835284516020808501918252338587015286015161ffff908116606080870191909152958701516001600160a01b0390811660808088019190915296880151811660a0808801919091529688015160c08088019190915288015190911660e0808701919091526000610100808801829052610120808b0151908901529189015190921661014087015287015161016086015261018085018190526101a08501819052948601516101c0850152600182018355919093528151600d9093027fa66cc928b5edb82af9bd49922954155ab7b0942694bea4ce44661d9a8736c688810193845590519192917fa66cc928b5edb82af9bd49922954155ab7b0942694bea4ce44661d9a8736c68990910190610cb39082611471565b506040820151600282018054606085015161ffff16600160a01b026001600160b01b03199091166001600160a01b039384161717905560808301516003830180549183166001600160a01b031992831617905560a084015160048401805491909316911617905560c0820151600582015560e0820151600682015561010082015160078201556101208201516008820190610d4e9082611471565b506101408201516009820180546001600160a01b0319166001600160a01b03909216919091179055610160820151600a820190610d8b9082611471565b50610180820151600b820180546101a085015115156101000261ff00199315159390931661ffff19909116179190911790556101c090910151600c90910155600754610dd990600190611531565b6040517fc2c021f5d73c63c481d336fbbafec58f694fc45095f00b02d2deb8cca59afe0790600090a250565b600060208284031215610e1757600080fd5b5035919050565b600080600060608486031215610e3357600080fd5b505081359360208301359350604090920135919050565b6000815180845260005b81811015610e7057602081850181015186830182015201610e54565b506000602082860101526020601f19601f83011685010191505092915050565b60006020808301818452808551808352604092508286019150828160051b87010184880160005b83811015610fe857603f1989840301855281516101e08151855288820151818a870152610ee682870182610e4a565b91505087820151610f01898701826001600160a01b03169052565b5060608281015161ffff16908601526080808301516001600160a01b039081169187019190915260a0808401519091169086015260c0808301519086015260e0808301519086015261010080830151908601526101208083015186830382880152610f6c8382610e4a565b9250505061014080830151610f8b828801826001600160a01b03169052565b50506101608083015186830382880152610fa58382610e4a565b9250505061018080830151610fbd8288018215159052565b50506101a0828101511515908601526101c09182015191909401529386019390860190600101610eb7565b509098975050505050505050565b634e487b7160e01b600052604160045260246000fd5b604051610140810167ffffffffffffffff8111828210171561103057611030610ff6565b60405290565b600082601f83011261104757600080fd5b813567ffffffffffffffff8082111561106257611062610ff6565b604051601f8301601f19908116603f0116810190828211818310171561108a5761108a610ff6565b816040528381528660208588010111156110a357600080fd5b836020870160208301376000602085830101528094505050505092915050565b803561ffff811681146110d557600080fd5b919050565b80356001600160a01b03811681146110d557600080fd5b60006020828403121561110357600080fd5b813567ffffffffffffffff8082111561111b57600080fd5b90830190610140828603121561113057600080fd5b61113861100c565b82358281111561114757600080fd5b61115387828601611036565b825250611162602084016110c3565b6020820152611173604084016110da565b6040820152611184606084016110da565b60608201526080830135608082015260a083013560a08201526111a960c084016110c3565b60c08201526111ba60e084016110da565b60e082015261010080840135838111156111d357600080fd5b6111df88828701611036565b82840152505061012080840135838111156111f957600080fd5b61120588828701611036565b918301919091525095945050505050565b60006020828403121561122857600080fd5b611231826110da565b9392505050565b6000806040838503121561124b57600080fd5b611254836110da565b946020939093013593505050565b6020808252825182820181905260009190848201906040850190845b818110156112a35783516001600160a01b03168352928401929184019160010161127e565b50909695505050505050565b600181811c908216806112c357607f821691505b6020821081036112e357634e487b7160e01b600052602260045260246000fd5b50919050565b61ffff84168152600060208481840152606060408401526000845461130d816112af565b806060870152608060018084166000811461132f576001811461134957611377565b60ff1985168984015283151560051b890183019550611377565b896000528660002060005b8581101561136f5781548b8201860152908301908801611354565b8a0184019650505b50939a9950505050505050505050565b60006020828403121561139957600080fd5b5051919050565b634e487b7160e01b600052603260045260246000fd5b60208082526023908201527f50726f706f73616c2068617320616c7265616479206265656e2065786563757460408201526232b21760e91b606082015260800190565b634e487b7160e01b600052601160045260246000fd5b8082018082111561098d5761098d6113f9565b601f82111561146c57600081815260208120601f850160051c810160208610156114495750805b601f850160051c820191505b8181101561146857828155600101611455565b5050505b505050565b815167ffffffffffffffff81111561148b5761148b610ff6565b61149f8161149984546112af565b84611422565b602080601f8311600181146114d457600084156114bc5750858301515b600019600386901b1c1916600185901b178555611468565b600085815260208120601f198616915b82811015611503578886015182559484019460019091019084016114e4565b50858210156115215787850151600019600388901b60f8161c191681555b5050505050600190811b01905550565b8181038181111561098d5761098d6113f956fea2646970667358221220e80dd4b80d56e0cc05694ee57c461a8a6af7bca8f3b9f2357516bb5990b8301e64736f6c63430008140033",
    "linkReferences": {}
  },
  "methodIdentifiers": {
    "createProposal((string,uint16,address,address,uint256,uint256,uint16,address,string,bytes))": "65cb906d",
    "executeProposal(uint256)": "0d61b519",
    "isCouncil(address)": "9aa360ec",
    "releaseLockedNFT(uint256)": "b744cc2b",
    "resources()": "f03906f5",
    "returnAllCouncil()": "da78b294",
    "returnAllProposal()": "28b84813",
    "stakeAndVote(uint256,uint256,uint256)": "0f07a76c",
    "voted(address,uint256)": "c591aa98"
  },
  "id": 48
}