{
  "abi": [
    {
      "anonymous": false,
      "inputs": [
        {
          "indexed": false,
          "internalType": "address",
          "name": "module",
          "type": "address"
        }
      ],
      "name": "ModuleCreated",
      "type": "event"
    },
    {
      "inputs": [
        {
          "internalType": "uint256",
          "name": "_minimumVotes",
          "type": "uint256"
        },
        {
          "internalType": "address",
          "name": "_mailboxAddress",
          "type": "address"
        },
        {
          "internalType": "address",
          "name": "_gasPaymaster",
          "type": "address"
        }
      ],
      "name": "createModule",
      "outputs": [
        {
          "internalType": "contract Module",
          "name": "",
          "type": "address"
        }
      ],
      "stateMutability": "nonpayable",
      "type": "function"
    },
    {
      "inputs": [
        {
          "internalType": "uint256",
          "name": "index",
          "type": "uint256"
        }
      ],
      "name": "getModules",
      "outputs": [
        {
          "internalType": "contract Module",
          "name": "",
          "type": "address"
        }
      ],
      "stateMutability": "view",
      "type": "function"
    },
    {
      "inputs": [],
      "name": "getModules",
      "outputs": [
        {
          "internalType": "contract Module[]",
          "name": "",
          "type": "address[]"
        }
      ],
      "stateMutability": "view",
      "type": "function"
    },
    {
      "inputs": [
        {
          "internalType": "uint256",
          "name": "",
          "type": "uint256"
        }
      ],
      "name": "modules",
      "outputs": [
        {
          "internalType": "contract Module",
          "name": "",
          "type": "address"
        }
      ],
      "stateMutability": "view",
      "type": "function"
    }
  ],
  "bytecode": {
    "object": "0x608060405234801561001057600080fd5b50612813806100206000396000f3fe608060405234801561001057600080fd5b506004361061004c5760003560e01c80632caad836146100515780635a678c051461008157806381b2248a14610094578063b2494df3146100a7575b600080fd5b61006461005f366004610274565b6100bc565b6040516001600160a01b0390911681526020015b60405180910390f35b61006461008f3660046102b0565b610190565b6100646100a23660046102b0565b6101bf565b6100af6101e9565b60405161007891906102c9565b6000808484846040516100ce9061024b565b9283526001600160a01b039182166020840152166040820152606001604051809103906000f080158015610106573d6000803e3d6000fd5b50600080546001810182559080527f290decd9548b62a8d60345a988386fc84ba6bc95484008f6362f93160ef3e5630180546001600160a01b0319166001600160a01b0383169081179091556040519081529091507fc9407eb280e4bc747e309b907edd9d46d316e43a480f90ca0484b801047c60079060200160405180910390a1949350505050565b60008082815481106101a4576101a4610316565b6000918252602090912001546001600160a01b031692915050565b600081815481106101cf57600080fd5b6000918252602090912001546001600160a01b0316905081565b6060600080548060200260200160405190810160405280929190818152602001828054801561024157602002820191906000526020600020905b81546001600160a01b03168152600190910190602001808311610223575b5050505050905090565b6124b18061032d83390190565b80356001600160a01b038116811461026f57600080fd5b919050565b60008060006060848603121561028957600080fd5b8335925061029960208501610258565b91506102a760408501610258565b90509250925092565b6000602082840312156102c257600080fd5b5035919050565b6020808252825182820181905260009190848201906040850190845b8181101561030a5783516001600160a01b0316835292840192918401916001016102e5565b50909695505050505050565b634e487b7160e01b600052603260045260246000fdfe6101c0604052620186a06003553480156200001957600080fd5b50604051620024b1380380620024b18339810160408190526200003c91620002da565b60408051808201825260068152654d6f64756c6560d01b602080830191909152825180840190935260018352603160f81b90830152906200007f82600062000184565b610120526200009081600162000184565b61014052815160208084019190912060e052815190820120610100524660a0526200011e60e05161010051604080517f8b73c3c69bb8fe3d512ecc4cf759cc79239f7b179b0ffacaa9a75d522b39400f60208201529081019290925260608201524660808201523060a082015260009060c00160405160208183030381529060405280519060200120905090565b60805250503060c0526001600160a01b03828116610160528116610180526101a08390526200014f600033620001bd565b6200017b7f65d7a28e3265b37a6474929f336521b332c1681b933f6cb9f3376673440d862a33620001cd565b50505062000501565b6000602083511015620001a4576200019c8362000271565b9050620001b7565b81620001b18482620003c0565b5060ff90505b92915050565b620001c98282620001cd565b5050565b60008281526002602090815260408083206001600160a01b038516845290915290205460ff16620001c95760008281526002602090815260408083206001600160a01b03851684529091529020805460ff191660011790556200022d3390565b6001600160a01b0316816001600160a01b0316837f2f8788117e7eff1d82e926ec794901d17c78024a50270940304540a733656f0d60405160405180910390a45050565b600080829050601f81511115620002a8578260405163305a27a960e01b81526004016200029f91906200048c565b60405180910390fd5b8051620002b582620004dc565b179392505050565b80516001600160a01b0381168114620002d557600080fd5b919050565b600080600060608486031215620002f057600080fd5b835192506200030260208501620002bd565b91506200031260408501620002bd565b90509250925092565b634e487b7160e01b600052604160045260246000fd5b600181811c908216806200034657607f821691505b6020821081036200036757634e487b7160e01b600052602260045260246000fd5b50919050565b601f821115620003bb57600081815260208120601f850160051c81016020861015620003965750805b601f850160051c820191505b81811015620003b757828155600101620003a2565b5050505b505050565b81516001600160401b03811115620003dc57620003dc6200031b565b620003f481620003ed845462000331565b846200036d565b602080601f8311600181146200042c5760008415620004135750858301515b600019600386901b1c1916600185901b178555620003b7565b600085815260208120601f198616915b828110156200045d578886015182559484019460019091019084016200043c565b50858210156200047c5787850151600019600388901b60f8161c191681555b5050505050600190811b01905550565b600060208083528351808285015260005b81811015620004bb578581018301518582016040015282016200049d565b506000604082860101526040601f19601f8301168501019250505092915050565b80516020808301519190811015620003675760001960209190910360031b1b16919050565b60805160a05160c05160e05161010051610120516101405161016051610180516101a051611f356200057c60003960006109b101526000818161029201526106ac0152600081816103dd01526105f0015260006111d9015260006111a701526000505060005050600050506000505060005050611f356000f3fe60806040526004361061011f5760003560e01c806385795f23116100a0578063c591aa9811610064578063c591aa9814610390578063d5438eae146103cb578063d547741f146103ff578063e63ab1e91461041f578063eb12d61e1461045357600080fd5b806385795f23146102f457806391d1485414610314578063a1ebf35d14610334578063a217fddf14610368578063b88b82ba1461037d57600080fd5b80632f2ff15d116100e75780632f2ff15d1461020c57806336568abe1461022c5780633b639e6f1461024c578063805ef6e81461028057806384b0196e146102cc57600080fd5b8063013cf08b1461012457806301ffc9a71461016757806306a95ce014610197578063248a9ca3146101ac57806328b84813146101ea575b600080fd5b34801561013057600080fd5b5061014461013f3660046115e9565b610473565b60405161015e9e9d9c9b9a99989796959493929190611652565b60405180910390f35b34801561017357600080fd5b506101876101823660046116fe565b61059f565b604051901515815260200161015e565b6101aa6101a5366004611778565b6105d6565b005b3480156101b857600080fd5b506101dc6101c73660046115e9565b60009081526002602052604090206001015490565b60405190815260200161015e565b3480156101f657600080fd5b506101ff610711565b60405161015e91906117dd565b34801561021857600080fd5b506101aa610227366004611925565b6108bc565b34801561023857600080fd5b506101aa610247366004611925565b6108e6565b34801561025857600080fd5b506101dc7f30fa31c98c24c24478d1f8bbb347f33bf7b82540eadc09708bc68a3daa4cf2a681565b34801561028c57600080fd5b506102b47f000000000000000000000000000000000000000000000000000000000000000081565b6040516001600160a01b03909116815260200161015e565b3480156102d857600080fd5b506102e1610969565b60405161015e9796959493929190611955565b34801561030057600080fd5b506101aa61030f366004611a13565b6109af565b34801561032057600080fd5b5061018761032f366004611925565b610d41565b34801561034057600080fd5b506101dc7fe2f4eaae4a9751e85a3e4a7b9587827a877f29914755229b07a7b2da98285f7081565b34801561037457600080fd5b506101dc600081565b6101aa61038b366004611b35565b610d6c565b34801561039c57600080fd5b506101876103ab366004611b81565b600560209081526000928352604080842090915290825290205460ff1681565b3480156103d757600080fd5b506102b47f000000000000000000000000000000000000000000000000000000000000000081565b34801561040b57600080fd5b506101aa61041a366004611925565b61104c565b34801561042b57600080fd5b506101dc7f65d7a28e3265b37a6474929f336521b332c1681b933f6cb9f3376673440d862a81565b34801561045f57600080fd5b506101aa61046e366004611bad565b611071565b6004818154811061048357600080fd5b60009182526020909120600c90910201805460018201546002830180549294506001600160a01b0390911692916104b990611bca565b80601f01602080910402602001604051908101604052809291908181526020018280546104e590611bca565b80156105325780601f1061050757610100808354040283529160200191610532565b820191906000526020600020905b81548152906001019060200180831161051557829003601f168201915b50505060038401546004850154600586015460068701546007880154600889015460098a0154600a8b0154600b909b0154999a61ffff88169a6001600160a01b036201000090990489169a50968816985094909616959294919390929160ff80831692610100900416908e565b60006001600160e01b03198216637965db0b60e01b14806105d057506301ffc9a760e01b6001600160e01b03198316145b92915050565b60405163fa31de0160e01b81526000906001600160a01b037f0000000000000000000000000000000000000000000000000000000000000000169063fa31de019061062b908890889088908890600401611c04565b6020604051808303816000875af115801561064a573d6000803e3d6000fd5b505050506040513d601f19601f8201168201806040525081019061066e9190611c47565b600354604051630237e58360e31b81526004810183905263ffffffff8816602482015260448101919091523360648201529091506001600160a01b037f000000000000000000000000000000000000000000000000000000000000000016906311bf2c189034906084016000604051808303818588803b1580156106f157600080fd5b505af1158015610705573d6000803e3d6000fd5b50505050505050505050565b60606004805480602002602001604051908101604052809291908181526020016000905b828210156108b3576000848152602090819020604080516101c081018252600c86029092018054835260018101546001600160a01b0316938301939093526002830180549293929184019161078990611bca565b80601f01602080910402602001604051908101604052809291908181526020018280546107b590611bca565b80156108025780601f106107d757610100808354040283529160200191610802565b820191906000526020600020905b8154815290600101906020018083116107e557829003601f168201915b5050509183525050600382015461ffff8116602080840191909152620100009091046001600160a01b0390811660408401526004840154811660608401526005840154166080830152600683015460a0830152600783015460c0830152600883015460e0830152600983015461010080840191909152600a84015460ff8082161515610120860152919004161515610140830152600b90920154610160909101529082526001929092019101610735565b50505050905090565b6000828152600260205260409020600101546108d7816110a6565b6108e183836110b3565b505050565b6001600160a01b038116331461095b5760405162461bcd60e51b815260206004820152602f60248201527f416363657373436f6e74726f6c3a2063616e206f6e6c792072656e6f756e636560448201526e103937b632b9903337b91039b2b63360891b60648201526084015b60405180910390fd5b6109658282611139565b5050565b60006060806000806000606061097d6111a0565b6109856111d2565b60408051600080825260208201909252600f60f81b9b939a50919850469750309650945092509050565b7f00000000000000000000000000000000000000000000000000000000000000008161ffff161015610a195760405162461bcd60e51b8152602060048201526013602482015272566f7465206e656564656420746f6f206c6f7760681b6044820152606401610952565b60648161ffff161115610a655760405162461bcd60e51b81526020600482015260146024820152730acdee8ca40dccacac8cac840e8dede40d0d2ced60631b6044820152606401610952565b610258821015610aac5760405162461bcd60e51b8152602060048201526012602482015271111d5c985d1a5bdb881d1bdbc81cda1bdc9d60721b6044820152606401610952565b62278d00821115610af35760405162461bcd60e51b81526020600482015260116024820152704475726174696f6e20746f6f206c6f6e6760781b6044820152606401610952565b604080516101c0810182526004805480835233602084019081529383018d815261ffff8d811660608601526001600160a01b038d811660808701528c811660a08701528b811660c087015260e086018b905261010086018a905290871661012086015260006101408601819052610160860181905261018086018190526101a086018990526001840185559390935283517f8a35acfbc15ff81a39ae7d344fd709f28e8600b4aa8c65c6b64bfe7fe36bd19b600c90930292830190815594517f8a35acfbc15ff81a39ae7d344fd709f28e8600b4aa8c65c6b64bfe7fe36bd19c830180546001600160a01b031916919094161790925590519192917f8a35acfbc15ff81a39ae7d344fd709f28e8600b4aa8c65c6b64bfe7fe36bd19d90910190610c1d9082611cae565b506060820151600382018054608085015161ffff9093166001600160b01b031990911617620100006001600160a01b039384160217905560a0830151600480840180546001600160a01b031990811693851693909317905560c0850151600585018054909316931692909217905560e0830151600683015561010080840151600784015561012084015160088401556101408401516009840155610160840151600a8401805461018087015161ffff1990911692151561ff001916929092179115159092021790556101a090920151600b9091015554610cff90600190611d84565b7f9c770c289ab5bf7e57cb1d23c8ceae993aea46eb64847072fd3d78ca60d3e4328a604051610d2e9190611d97565b60405180910390a2505050505050505050565b60009182526002602090815260408084206001600160a01b0393909316845291905290205460ff1690565b600060048481548110610d8157610d81611daa565b90600052602060002090600c0201905080600a0160019054906101000a900460ff1615610de25760405162461bcd60e51b815260206004820152600f60248201526e2b37ba32903430b99032b73232b21760891b6044820152606401610952565b600a81015460ff1615610e075760405162461bcd60e51b815260040161095290611dc0565b33600090815260056020908152604080832087845290915290205460ff1615610e725760405162461bcd60e51b815260206004820152601760248201527f596f75206861766520616c726561647920766f7465642e0000000000000000006044820152606401610952565b6000808080610e8386880188611e03565b6004890154939750919550935091506001600160a01b03808616911614610ef85760405162461bcd60e51b815260206004820152602360248201527f546f6b656e206164647265737320736f7572636520646f6573206e6f74206d616044820152620e8c6d60eb1b6064820152608401610952565b60058501546001600160a01b03848116911614610f685760405162461bcd60e51b815260206004820152602860248201527f546f6b656e20616464726573732064657374696e6174696f6e20646f6573206e6044820152670dee840dac2e8c6d60c31b6064820152608401610952565b84600601548214610fbb5760405162461bcd60e51b815260206004820152601b60248201527f536f757263652076616c756520646f6573206e6f74206d6174636800000000006044820152606401610952565b8460070154811461100e5760405162461bcd60e51b815260206004820181905260248201527f44657374696e6174696f6e2076616c756520646f6573206e6f74206d617463686044820152606401610952565b60018560090160008282546110239190611e49565b90915550506009850154600886015403611042576110428888886111ff565b5050505050505050565b600082815260026020526040902060010154611067816110a6565b6108e18383611139565b600061107c816110a6565b6109657fe2f4eaae4a9751e85a3e4a7b9587827a877f29914755229b07a7b2da98285f70836110b3565b6110b081336112ec565b50565b6110bd8282610d41565b6109655760008281526002602090815260408083206001600160a01b03851684529091529020805460ff191660011790556110f53390565b6001600160a01b0316816001600160a01b0316837f2f8788117e7eff1d82e926ec794901d17c78024a50270940304540a733656f0d60405160405180910390a45050565b6111438282610d41565b156109655760008281526002602090815260408083206001600160a01b0385168085529252808320805460ff1916905551339285917ff6391f5c32d9c69d2a47ea670b442974b53935d1edc7fd64eb21e047a839171b9190a45050565b60606111cd7f00000000000000000000000000000000000000000000000000000000000000006000611345565b905090565b60606111cd7f00000000000000000000000000000000000000000000000000000000000000006001611345565b60006004848154811061121457611214611daa565b60009182526020909120600c90910201600a81015490915060ff161561124c5760405162461bcd60e51b815260040161095290611dc0565b600a810154610100900460ff16156112a65760405162461bcd60e51b815260206004820152601b60248201527f50726f706f73616c2068617320616c726561647920656e6465642e00000000006044820152606401610952565b600a8101805461ffff1916610101179055600381015462010000810460601b6bffffffffffffffffffffffff1916906112e59061ffff168286866105d6565b5050505050565b6112f68282610d41565b61096557611303816113f0565b61130e836020611402565b60405160200161131f929190611e5c565b60408051601f198184030181529082905262461bcd60e51b825261095291600401611d97565b606060ff831461135f5761135883611582565b90506105d0565b81805461136b90611bca565b80601f016020809104026020016040519081016040528092919081815260200182805461139790611bca565b80156113e45780601f106113b9576101008083540402835291602001916113e4565b820191906000526020600020905b8154815290600101906020018083116113c757829003601f168201915b505050505090506105d0565b60606105d06001600160a01b03831660145b6060826000611412846002611ed1565b61141d906002611e49565b67ffffffffffffffff811115611435576114356119eb565b6040519080825280601f01601f19166020018201604052801561145f576020820181803683370190505b509050600360fc1b8160008151811061147a5761147a611daa565b60200101906001600160f81b031916908160001a905350600f60fb1b816001815181106114a9576114a9611daa565b60200101906001600160f81b031916908160001a90535060006114cd856002611ed1565b6114d8906001611e49565b90505b6001811115611550576f181899199a1a9b1b9c1cb0b131b232b360811b83600f166010811061150c5761150c611daa565b1a60f81b82828151811061152257611522611daa565b60200101906001600160f81b031916908160001a90535060049290921c9161154981611ee8565b90506114db565b50811561157a5760405163e22e27eb60e01b81526004810186905260248101859052604401610952565b949350505050565b6060600061158f836115c1565b604080516020808252818301909252919250600091906020820181803683375050509182525060208101929092525090565b600060ff8216601f8111156105d057604051632cd44ac360e21b815260040160405180910390fd5b6000602082840312156115fb57600080fd5b5035919050565b60005b8381101561161d578181015183820152602001611605565b50506000910152565b6000815180845261163e816020860160208601611602565b601f01601f19169290920160200192915050565b8e81526001600160a01b038e1660208201526101c06040820181905260009061167d9083018f611626565b61ffff8e1660608401526001600160a01b038d16608084015290506001600160a01b038b1660a08301526001600160a01b038a1660c08301528860e08301528761010083015286610120830152856101408301526116e061016083018615159052565b9215156101808201526101a001529c9b505050505050505050505050565b60006020828403121561171057600080fd5b81356001600160e01b03198116811461172857600080fd5b9392505050565b60008083601f84011261174157600080fd5b50813567ffffffffffffffff81111561175957600080fd5b60208301915083602082850101111561177157600080fd5b9250929050565b6000806000806060858703121561178e57600080fd5b843563ffffffff811681146117a257600080fd5b935060208501359250604085013567ffffffffffffffff8111156117c557600080fd5b6117d18782880161172f565b95989497509550505050565b60006020808301818452808551808352604092508286019150828160051b87010184880160005b838110156118f257603f19898403018552815180518452878101516001600160a01b031688850152868101516101c08886018190529061184682870182611626565b91505060608083015161185e8288018261ffff169052565b50506080828101516001600160a01b039081169187019190915260a08084015182169087015260c0808401519091169086015260e0808301519086015261010080830151908601526101208083015190860152610140808301519086015261016080830151151590860152610180808301511515908601526101a09182015191909401529386019390860190600101611804565b509098975050505050505050565b6001600160a01b03811681146110b057600080fd5b803561192081611900565b919050565b6000806040838503121561193857600080fd5b82359150602083013561194a81611900565b809150509250929050565b60ff60f81b881681526000602060e08184015261197560e084018a611626565b8381036040850152611987818a611626565b606085018990526001600160a01b038816608086015260a0850187905284810360c0860152855180825283870192509083019060005b818110156119d9578351835292840192918401916001016119bd565b50909c9b505050505050505050505050565b634e487b7160e01b600052604160045260246000fd5b803561ffff8116811461192057600080fd5b60008060008060008060008060006101208a8c031215611a3257600080fd5b893567ffffffffffffffff80821115611a4a57600080fd5b818c0191508c601f830112611a5e57600080fd5b813581811115611a7057611a706119eb565b604051601f8201601f19908116603f01168101908382118183101715611a9857611a986119eb565b816040528281528f6020848701011115611ab157600080fd5b82602086016020830137600060208483010152809d505050505050611ad860208b01611a01565b9750611ae660408b01611915565b9650611af460608b01611915565b9550611b0260808b01611915565b945060a08a0135935060c08a0135925060e08a01359150611b266101008b01611a01565b90509295985092959850929598565b600080600060408486031215611b4a57600080fd5b83359250602084013567ffffffffffffffff811115611b6857600080fd5b611b748682870161172f565b9497909650939450505050565b60008060408385031215611b9457600080fd5b8235611b9f81611900565b946020939093013593505050565b600060208284031215611bbf57600080fd5b813561172881611900565b600181811c90821680611bde57607f821691505b602082108103611bfe57634e487b7160e01b600052602260045260246000fd5b50919050565b63ffffffff8516815283602082015260606040820152816060820152818360808301376000818301608090810191909152601f909201601f191601019392505050565b600060208284031215611c5957600080fd5b5051919050565b601f8211156108e157600081815260208120601f850160051c81016020861015611c875750805b601f850160051c820191505b81811015611ca657828155600101611c93565b505050505050565b815167ffffffffffffffff811115611cc857611cc86119eb565b611cdc81611cd68454611bca565b84611c60565b602080601f831160018114611d115760008415611cf95750858301515b600019600386901b1c1916600185901b178555611ca6565b600085815260208120601f198616915b82811015611d4057888601518255948401946001909101908401611d21565b5085821015611d5e5787850151600019600388901b60f8161c191681555b5050505050600190811b01905550565b634e487b7160e01b600052601160045260246000fd5b818103818111156105d0576105d0611d6e565b6020815260006117286020830184611626565b634e487b7160e01b600052603260045260246000fd5b60208082526023908201527f50726f706f73616c2068617320616c7265616479206265656e2065786563757460408201526232b21760e91b606082015260800190565b60008060008060808587031215611e1957600080fd5b8435611e2481611900565b93506020850135611e3481611900565b93969395505050506040820135916060013590565b808201808211156105d0576105d0611d6e565b7f416363657373436f6e74726f6c3a206163636f756e7420000000000000000000815260008351611e94816017850160208801611602565b7001034b99036b4b9b9b4b733903937b6329607d1b6017918401918201528351611ec5816028840160208801611602565b01602801949350505050565b80820281158282048414176105d0576105d0611d6e565b600081611ef757611ef7611d6e565b50600019019056fea264697066735822122010f10a51ad3799a74acf31c5d950fef85069b28b51dc4b2422cc1205fabb7e3264736f6c63430008140033a2646970667358221220e4d0f4c19cfd13f58a3f6e13026e757a46ec72d372902e6577bb2c4ca47afa2664736f6c63430008140033",
    "linkReferences": {}
  },
  "methodIdentifiers": {
    "createModule(uint256,address,address)": "2caad836",
    "getModules()": "b2494df3",
    "getModules(uint256)": "5a678c05",
    "modules(uint256)": "81b2248a"
  },
  "id": 31
}