{
  "abi": [
    {
      "inputs": [
        {
          "internalType": "address",
          "name": "_IMailbox",
          "type": "address"
        },
        {
          "internalType": "address",
          "name": "_IInterchainGasPaymaster",
          "type": "address"
        }
      ],
      "stateMutability": "nonpayable",
      "type": "constructor"
    },
    {
      "inputs": [
        {
          "internalType": "uint32",
          "name": "_destinationDomain",
          "type": "uint32"
        },
        {
          "internalType": "bytes32",
          "name": "_recipientAddress",
          "type": "bytes32"
        },
        {
          "internalType": "bytes",
          "name": "_messageBody",
          "type": "bytes"
        }
      ],
      "name": "execute",
      "outputs": [],
      "stateMutability": "payable",
      "type": "function"
    },
    {
      "inputs": [],
      "name": "mailbox",
      "outputs": [
        {
          "internalType": "contract IMailbox",
          "name": "",
          "type": "address"
        }
      ],
      "stateMutability": "view",
      "type": "function"
    },
    {
      "inputs": [],
      "name": "paymaster",
      "outputs": [
        {
          "internalType": "contract IInterchainGasPaymaster",
          "name": "",
          "type": "address"
        }
      ],
      "stateMutability": "view",
      "type": "function"
    }
  ],
  "bytecode": {
    "object": "0x60c0604052620186a060005534801561001757600080fd5b506040516103fd3803806103fd83398101604081905261003691610069565b6001600160a01b039182166080521660a05261009c565b80516001600160a01b038116811461006457600080fd5b919050565b6000806040838503121561007c57600080fd5b6100858361004d565b91506100936020840161004d565b90509250929050565b60805160a0516103316100cc60003960008181604b01526101a8015260008181609b015260ec01526103316000f3fe6080604052600436106100345760003560e01c806316e4cbf914610039578063d5438eae14610089578063f6d24ffc146100bd575b600080fd5b34801561004557600080fd5b5061006d7f000000000000000000000000000000000000000000000000000000000000000081565b6040516001600160a01b03909116815260200160405180910390f35b34801561009557600080fd5b5061006d7f000000000000000000000000000000000000000000000000000000000000000081565b6100d06100cb36600461020d565b6100d2565b005b60405163fa31de0160e01b81526000906001600160a01b037f0000000000000000000000000000000000000000000000000000000000000000169063fa31de019061012790889088908890889060040161029f565b6020604051808303816000875af1158015610146573d6000803e3d6000fd5b505050506040513d601f19601f8201168201806040525081019061016a91906102e2565b600054604051630237e58360e31b81526004810183905263ffffffff8816602482015260448101919091523360648201529091506001600160a01b037f000000000000000000000000000000000000000000000000000000000000000016906311bf2c189034906084016000604051808303818588803b1580156101ed57600080fd5b505af1158015610201573d6000803e3d6000fd5b50505050505050505050565b6000806000806060858703121561022357600080fd5b843563ffffffff8116811461023757600080fd5b935060208501359250604085013567ffffffffffffffff8082111561025b57600080fd5b818701915087601f83011261026f57600080fd5b81358181111561027e57600080fd5b88602082850101111561029057600080fd5b95989497505060200194505050565b63ffffffff8516815283602082015260606040820152816060820152818360808301376000818301608090810191909152601f909201601f191601019392505050565b6000602082840312156102f457600080fd5b505191905056fea2646970667358221220dde094019ee4654f7ac09578a8e518c0aba208fd19a3507f582df9ac6f8acae964736f6c63430008140033",
    "linkReferences": {}
  },
  "methodIdentifiers": {
    "execute(uint32,bytes32,bytes)": "f6d24ffc",
    "mailbox()": "d5438eae",
    "paymaster()": "16e4cbf9"
  },
  "id": 15
}